:020000040800F2
:100000000004002041010008711500087115000866
:1000100071150008711500087115000871150008A8
:10002000711500087115000871150008010300081A
:100030007115000871150008711500087115000888
:100040007115000871150008711500087115000878
:100050007115000871150008711500087115000868
:10006000711500087115000871150008810D000850
:10007000510D0008210D0008F10C0008C10C00080A
:10008000910C0008610C000871150008D1160008D9
:10009000B11E0008711500087115000871150008DF
:1000A0007115000871150008711500087115000818
:1000B000611700087115000871150008B1190008D2
:1000C000C1180008711500087115000871150008A5
:1000D0007115000871150008E11600087115000877
:1000E00071150008711500087115000871150008D8
:1000F00071150008711500087115000871150008C8
:1001000071150008711500087115000871150008B7
:1001100071150008711500087115000871150008A7
:100120007115000871150008711500087115000897
:100130007115000871150008711500087115000887
:1001400072B6214880F30988022080F31488BFF337
:100150006F8F01F025FA01F07BFD1C481C491D4AF8
:1001600091423CBF41F8040BFAE71B49164A914201
:100170003CBF41F8040BFAE71849194A194B9A4257
:100180003EBF51F8040B42F8040BF8E70020164973
:10019000164A91423CBF41F8040BFAE701F0F8F926
:1001A000134C144DAC4203DA54F8041B8847F9E7AA
:1001B00002F0DEF8104C114DAC4203DA54F8041B87
:1001C0008847F9E701F0DCB900080020555555557E
:1001D00000000020000400200004002098440008D3
:1001E000000800204408002048080020901000204B
:1001F00040010008400100084001000840010008DB
:100200002DE9F04FC1F80CD0D0F80CD0BDE8F08F3C
:10021000002383F311882846A047002000F0C0FF88
:1002200000F0CEFE00DFFEE700000000000000004E
:10023000012230B402FA01F304899BB213EA0405E7
:1002400002D030BC10467047890001F1804101F5B1
:10025000B8410A68234322F4F04222F0400282F0BF
:10026000300242F4004242F080020381284630BC52
:100270000A6070470000000000000000000000005D
:1002800090F87630426880F87E300649126843F074
:10029000800310B50446CB640AB1012190470323C3
:1002A000237010BD005C0040000000000000000052
:1002B000704700BF000000000000000000000000C8
:1002C00090F8743003F06003202B01D000207047B9
:1002D00090F87530212B03D0222B09D0202BF5D19B
:1002E0000649072200238166C26603670120704722
:1002F00000238366C366036701207047000800205F
:10030000EFF30983203383F30988002383F31188F3
:10031000704700BF00000000000000000000000067
:1003200010B4202383F31188094C0A4B2268196802
:10033000C31D23F00703891A8B429DBF9B182360BE
:1003400010460020002383F311885DF8044B7047AA
:100350000C0A0020080A0020000000000000000035
:1003600010B4202383F31188037F072B0ED8DFE816
:1003700003F0270D0D2308040D08026A936801336A
:10038000936090E80C001A60026853604FF0FF34ED
:10039000002281680D4B046202771B689A688A42CA
:1003A000FBD25A680021036042601060586081F3FC
:1003B00011885DF8044B7047036A00221A60E5E774
:1003C000002383F311885DF8044B7047200F002051
:1003D00010B4044600228168074B02771B689A68B4
:1003E0008A42FBD25A6820462360626014605C60D7
:1003F0005DF8044B704700BF200F00200000000094
:10040000FEE700BF00000000000000000000000048
:1004100090F8642038B5062A0AD80123934013F0D7
:10042000670F044611D113F0080502D1DB062ED464
:1004300038BDC3689B699B68002BF9D1036F03B17A
:100440009847002384F8643038BD1C4A416813681B
:100450000D6823F4F04323F0400383F0100343F4CA
:10046000004343F080031360136823F4904323F0A8
:10047000700383F4805343F4004343F0800313601C
:100480000DB10521A847062384F8643038BDC36840
:1004900005225B69294680F864201D70DD605D607F
:1004A0009D6001F01DFC202383F31188204629461E
:1004B000FFF7BEFE85F3118838BD00BF005C004029
:1004C000F8B5046AD4F8542213681978042900D0C6
:1004D000F8BD217A0229FBD112791B89012606FA7F
:1004E00002F212EA0305F3D1226CE36BA16BD31A7B
:1004F0005B1AEDD085F31188D4F8541204F130075B
:100500000A680979104602EB8102D2685269536089
:1005100016709560D76001F0E3FB202383F3118808
:10052000D4F8543218681979BDE8F840FFF780BE56
:100530000D4AF0B410689469056801270026A16887
:100540002B466A60156007779061267700E01B688C
:100550009A688A42FBD85A68214623606260146018
:100560005C60F0BCFFF74CBE200F002000000000D4
:10057000F0B5224F467A01243D6804FA06FE1EEAD1
:10058000050F36D11E4C4EEA050504EBC60ECEF81B
:1005900004306B063D6044F8362004D0194C636982
:1005A00043F001036361036846681C680F2524F06B
:1005B0000F041C60077A0024BD4035601C60D2B176
:1005C000827A090153099B0002F16045012003F181
:1005D000604302F01F0200FA02F203F56143C9B260
:1005E00005F5614585F80013C3F880211A6020469F
:1005F000F0BD2046F0BD1046F0BD00BF80080020D1
:10060000680C002000100240000000000000000004
:10061000012230B402FA01F344899BB213EA0405C3
:1006200002D030BC10467047890001F1804101F5CD
:10063000B8410A68234322F4904222F0700282F407
:10064000405242F4004242F080024381284630BCCE
:100650000A60704700000000000000000000000079
:1006600038B590F864300446062B26D8DFE803F04E
:1006700004452D0404260400334A416813680D68BC
:1006800023F4F04323F0400383F0100343F40043CA
:1006900043F080031360136823F4904323F0700346
:1006A00083F4805343F4004343F0800313600DB19F
:1006B0000521A847062384F8643038BD036F03B1D1
:1006C0009847002384F8643038BDC3689B690025CF
:1006D000032284F8642029461D70DD605D609D6002
:1006E000204601F03DFB202383F311882046294654
:1006F000FFF78EFF85F3118838BD90F87B2090F8C6
:100700007A30C16E43EA02238B42C368DED91D8A68
:10071000B1FBF5F205FB1215002DD7D15B69294617
:100720001D70DD605D609D6001F0DAFA202383F3C7
:10073000118820462946FFF77BFD85F311880223A7
:1007400084F8643038BD00BF005C00400000000049
:10075000F8B50446BC4B00221B6D80F8642003F101
:10076000005303F5405303EBC10149008B6800F1CE
:10077000740203F1005303F540535B0000F17C0663
:1007800053F8041B22F8021BB242F9D163689B683C
:100790006BB32046984750B3E56E94F8743094F8E4
:1007A0007B1094F87A2042EA0122AA423CBF154607
:1007B000E26613F0800FE36840F0B280002D40F055
:1007C00097805B69052284F8642020461D70DD60F7
:1007D0005D609D60294601F083FA202383F3118830
:1007E00020462946FFF724FD85F31188F8BD94F8CB
:1007F000743013F0600722D0934A616813680D6863
:1008000023F4F04323F0400383F0100343F4004348
:1008100043F080031360136823F4904323F07003C4
:1008200083F4805343F4004343F08003136015B115
:1008300020460521A847062384F86430F8BD94F8C3
:10084000755003F07F0242EA0525B5F5407F00F0C0
:100850001A8118D9B5F5C06F00F0FC8040F28F8086
:10086000B5F5106F00F0998040F60242954200F015
:10087000E380B5F5006FBFD104F17F020125276742
:10088000A266E5668BE7022D00F00D8140F2CA807A
:10089000B5F5807F00F09480B5F5817FACD194F8F8
:1008A0007620002AA8D194F8781011F00F021AD0FF
:1008B000920002F1804202F5B84211F0800F1168F7
:1008C00040F0158101F44051B1F5405F0BD0136841
:1008D00023F4F04323F0400343F4204343F0800328
:1008E000136094F874300025A566E566256756E721
:1008F0009B69A26E0026042184F864102046DA6009
:100900005D601E709E60314601F02AFA202383F359
:10091000118820463146FFF77BFE86F31188F8BD2B
:10092000BDB15B69A26E0026012184F864102046E7
:10093000DA605D601E709E60314601F0D1F92023BF
:1009400083F3118820463146FFF772FC86F3118845
:10095000F8BD9B69032284F8642020461D70DD6089
:100960005D609D60294601F0FBF9202383F3118827
:1009700020462946FFF74CFE85F31188F8BD40F26A
:10098000023295422CD0B5F5A06F7FF435AF2F4AD7
:10099000A766E7663D46226701E794F8762084F86B
:1009A0007F20002A40F0958003222270626812683E
:1009B000002A98D020460221904794F8743092E79C
:1009C00094F87620012A7FF417AFB4F87C20A7664C
:1009D00022F00202E76627673D46A4F87C20DEE6A7
:1009E00094F87620002A7FF407AF94F8781011F07D
:1009F0000F023FF478AF930003F1804303F5B8434F
:100A000009061A6800F1878022F4904222F07002F1
:100A100082F4805242F4004242F080021A6094F85C
:100A2000743060E72DB902222567A666E266154696
:100A3000B5E6012D7FF4E0AE054902250022A1664E
:100A4000E5662267ABE600BF005C0040810200085B
:100A5000B03C0008616894F8792094F878304D68CB
:100A600043EA0223204694F8771094F87620A847AA
:100A700000283FF4C1AE43680568A366E5662767B2
:100A800094F874308BE694F87620012A7FF4B4AEA3
:100A9000B4F87C20A76642F00202E76627673D466D
:100AA000A4F87C207BE694F87820224912F0800F8D
:100AB00002F00F0251F822200ED112F440523FF4FE
:100AC0009BAEB2F5805F0DD11B4AE5662767A26633
:100AD00065E60422227069E712F030023FF48CAE22
:100AE000102AF1D0154AE5662767A26657E601F09D
:100AF000300130293FF4F7AE136823F4F04323F0BC
:100B0000400383F0200343F4004343F08003136069
:100B100094F87430E7E622F4F04222F0400282F0CA
:100B2000100242F4004242F080021A6094F87430DD
:100B3000D9E600BF005C0040D03C0008C03C000883
:100B4000F8B5046AD4F8542213681978042900D03F
:100B5000F8BD217A0229FBD1517901265A8903EB8C
:100B60008103DB6806FA01F111EA0205588AEFD128
:100B7000A369E2696169D21A531A9842E8D885F3E9
:100B80001188B3FBF0F3D4F8542200FB03F351793E
:100B9000106804F10C0700EB8102D268926953607F
:100BA00016709560D76001F0DBF8202383F311887D
:100BB000D4F8543218685979BDE8F840FFF728BDD9
:100BC000536970B5144606460D4623B118460021F8
:100BD000102202F0B5FFA06918B10021142202F022
:100BE000AFFF06EB8503DC6030462946BDE8704068
:100BF00001F0C6B800000000000000000000000086
:100C0000202383F311880F4B5B6813F4006302D138
:100C100083F311887047EFF309834FF0807243F834
:100C2000042CA3F1200282F30988074A1168926913
:100C30008968926891428CBF044A054A43F8082C9F
:100C4000704700BF00ED00E0200F002021020008E7
:100C50002402000800000000000000000000000066
:100C6000074B08481968026BC1F3036110B50C0605
:100C70005C600AB1406B9047BDE81040FFF7C0BF11
:100C800000000240680C002000000000000000008E
:100C9000074B08481968826AC1F3035110B50C0567
:100CA0005C600AB1C06A9047BDE81040FFF7A8BF7A
:100CB00000000240680C002000000000000000005E
:100CC000074B08481968026AC1F3034110B50C04C8
:100CD0005C600AB1406A9047BDE81040FFF790BFE2
:100CE00000000240680C002000000000000000002E
:100CF000074B084819688269C1F3033110B50C032A
:100D00005C600AB1C0699047BDE81040FFF778BF4A
:100D100000000240680C00200000000000000000FD
:100D2000074B084819680269C1F3032110B50C028A
:100D30005C600AB140699047BDE81040FFF760BFB2
:100D400000000240680C00200000000000000000CD
:100D5000074B084819688268C1F3031110B50C01EC
:100D60005C600AB1C0689047BDE81040FFF748BF1B
:100D700000000240680C002000000000000000009D
:100D800008B5074B074A196801F00F01596013684D
:100D90000BB150689847BDE80840FFF731BF00BF6E
:100DA00000000240680C002000000000000000006D
:100DB000436B027F19430A2A41630AD00B2A00D0F1
:100DC0007047036A19408B42FAD100230362FFF790
:100DD000FFBA036A1942F8D1704700BF0000000053
:100DE00070B504680646A0420D460DD0E3682B435B
:100DF000E36015B12269134203D06068A168FFF770
:100E0000D7FF2468A642F1D170BD00BF00000000EA
:100E100001F111032DE9F04150F82340BCB1074620
:100E20000D464FF0200888F3118804216018FFF761
:100E3000D7FF07EB8500C168E269A6696369498A43
:100E4000921BD31A994204D9002383F31188BDE879
:100E5000F0814FF0000E8EF31188B3FBF1F3C268FE
:100E600001FB03F392690C34012111705360C2F845
:100E700008E0D4603846294600F072FF88F31188F4
:100E800038462946FFF7C4FBDEE700BF000000003C
:100E9000F8B500EB81039C6ABCB10E4605462027DD
:100EA00087F311880821201DFFF79AFF226CE36B5E
:100EB000A16BD31A5B1A18D105EB8601CB685A696E
:100EC00052681AB9002383F31188F8BD1B8A013BCD
:100ED0001340F7D183F31188CA6830345269012175
:100EE00053609360D46011700CE0002181F311888D
:100EF00005EB8602D268303452690120D460536019
:100F0000916010702846314600F0EAFE87F31188A0
:100F100028463146FFF78CF9D4E700BF00000000F7
:100F20000E4B0F495A688368096FD31A5B1AC2685F
:100F3000416830B4D0E90445E41845F100050132B8
:100F40008B42C2608360C0E9044505D802689342C1
:100F500038BF036030BC70474360FBE7001000E01F
:100F6000200F002000000000000000000000000032
:100F700038B50368044698420D4609D01A681846E9
:100F8000226054601D62FFF723FA23689C42F5D16A
:100F900038BD00BF0000000000000000000000009D
:100FA00003682BB10022026018461962FFF710BADD
:100FB000704700BF000000000000000000000000BB
:100FC000FFF7B6BA000000000000000000000000BB
:100FD000044B1A689B6992689B689A4200D87047D4
:100FE000FFF7A6BA200F002000000000000000005C
:100FF000174B70B59D69202383F311880468C3687B
:10100000A042AB631DD0E96B4BB11A68934203D089
:101010009268914238BF1146DB68002BF5D1034638
:101020002268A66B2046A9601A6053609C60DE604F
:10103000A363FFF7CDF9FFF7CBFF002383F31188FC
:1010400070BD00238360002383F3118870BD00BF4F
:10105000200F002000000000000000000000000041
:10106000074B30B41A6899691468012508776360E2
:1010700015771C60104630BC9A61FFF7C1B800BFFD
:10108000200F002000000000000000000000000011
:10109000F8B582682F4B9C69002A55D0A1689368E7
:1010A0000546994206D9137F9160062B33D0072B52
:1010B0001DD09BB12B4603E09968A268914202D3F0
:1010C0001B689D42F8D15A682360626014605C60BE
:1010D00025620620BDE8F840FFF7C2BF92E80A008B
:1010E0001960104612685360FFF772F9E2E717685B
:1010F0005068166A076017683346786002E098689F
:10110000884202D31B689E42F9D15968136051602E
:101110000A605A60CEE717685068166A0760176859
:101120003346786002E09868884202D31B689E428A
:10113000F9D15968136051600A605A60B268A168B9
:1011400093688B42AFD3B5E7A36B8460C360A063A1
:10115000F8BD00BF200F00200000000000000000CC
:1011600038B50E4B9C69636A04F124059D422062E8
:1011700007D01A6818466262FFF72AF9636AAB4221
:10118000F7D1637F9B0704D1226963691A612269E1
:1011900053610F20BDE83840FFF762BF200F0020E9
:1011A000202383F31188FFF7DBBF00BF000000009E
:1011B0004FF6FF732DE9F041994286B051D0494C6A
:1011C0004FF08047254655F81C2F7B6A01290646BB
:1011D000DFF814E1A06998BF0221AA4205909BB2F2
:1011E000CDF810E064D01944E38C89B21089CB1A91
:1011F0009BB2834238BF7963834205D912681B1AB8
:1012000010899BB29842F9D34FF6FF7051680DF1E7
:10121000040802910192C1F80080C2F80480ADF880
:101220000C301189CB1A1381A0843046FFF718FFC8
:10123000049B8BB1E3692B4A43451AD0029A019B68
:1012400000211360019BAB425A60049104D0BDF8A9
:101250000C101A890A441A81A369186A06B0BDE8FD
:10126000F081FFF7FDFE1F4CA369186A06B0BDE8C8
:10127000F081019E0023AE42D661756004932CD0AC
:101280004FF08040416AD58CBDF80C7033898AB22A
:10129000511B3B449BB289B28B423381DCD95B1A30
:1012A0009BB2012B98BF022313449BB24363D3E745
:1012B000CA180DF1040892B24FF0000E0220E38428
:1012C00001950295ADF80C10C4F81C80C4F820807C
:1012D0007A63C7F810E0F860A7E74FF08042D36068
:1012E000BAE700BF200F00206103000800000000E3
:1012F00069B10246074B10B49B694468042083E837
:101300001400236053605DF8044BFFF751BF4FF0AA
:10131000FF307047200F0020000000000000000098
:101320002DE9F04F83B004468B4615460193C769FB
:101330004FF0200888F311880026B146A3680BF10E
:10134000010AFBB16269A368501C013B6061A360A4
:101350009BF800301370236962699A4224BFE368E6
:1013600063610FB12046B84789F31188013D06F14A
:10137000010611D088F31188D346A3680BF1010A46
:10138000002BDFD1204601990093FFF7B1FF009BAE
:101390000028D3D083F31188304603B0BDE8F08F26
:1013A0003030FFF7BDBF00BF0000000000000000AC
:1013B00030304FF6FF73FFF7B3BF00BF00000000EF
:1013C000F8B504460F461646202383F3118805E03E
:1013D00020463146FFF78CFF002817DBA568002D5B
:1013E000F6D06269A368511C013B6161A36017706C
:1013F000236962699A4224BFE3686361E3690BB1C0
:1014000020469847002080F31188F8BD85F31188A5
:10141000F8BD00BF00000000000000000000000058
:101420003030FFF7CDBF00BF00000000000000001B
:1014300030304FF6FF72FFF7C3BF00BF000000005F
:101440002DE9F04F044683B0894693461D46D0F8F7
:101450001C80202787F311880026B2460197B8F137
:10146000000F07D02046C04704E020462946FFF77A
:101470003FFFD0B9A768002FF7D0A269A368511C1D
:10148000013BA161A360137809F8013B2369A269BC
:101490009A4224BFE368A3618AF311880136B345F9
:1014A00005D0019B83F31188D9E787F31188304673
:1014B00003B0BDE8F08F00BF000000000000000096
:1014C0000C30FFF7BDBF00BF0000000000000000AF
:1014D0000C304FF6FF73FFF7B3BF00BF00000000F2
:1014E00070B520230E46044683F31188C3693BB1CF
:1014F000984705E020463146FFF7FAFE002813DB47
:10150000A568002DF6D0A169A36825694A1C013B96
:10151000AA42A36028BFE368A261087828BFA3613C
:10152000002383F3118870BD85F3118870BD00BF5F
:101530000C30FFF7D5BF00BF000000000000000026
:101540000C304FF6FF71FFF7CBBF00BF000000006B
:1015500008B50146202383F311880820FFF728FEF1
:10156000002383F3118808BD000000000000000084
:10157000FEE700BF000000000000000000000000C7
:10158000FEE700BF000000000000000000000000B7
:10159000704700BF000000000000000000000000D5
:1015A000704700BF000000000000000000000000C5
:1015B000F8B50B0715D44269476892E860002968BE
:1015C0000F2321F00F012960117A3A688B40022124
:1015D0003360044641704AB190476378022B05D0CE
:1015E000F8BD72B6034B044A9A62FEE700236370AB
:1015F000F8BD00BF200F0020003D000800000000E3
:101600000B070DD483782DE9F04104466BB943688C
:10161000DB68002B32D0BDE8F041018B89B218475E
:1016200072B6174B174A9A62FEE70569426895E859
:1016300088001E680F2126F00F061E602E7A95681E
:10164000B14002263960867035B1A847A378B3420D
:1016500014D1236962681B68D168E26800290CBF55
:10166000202122210A430025012104F11800A57040
:10167000D86059601A601A680A431A60BDE8F081A0
:10168000200F0020003D00080000000000000000C6
:101690000B0730B4446B11D4026B0F2392E8210086
:1016A000016821F00F010160127A93402B60A3883A
:1016B0009BB243F40073A38030BC704772B6024BF8
:1016C000024A9A62FEE700BF200F0020003D00089A
:1016D000FFF796BA000000000000000000000000C4
:1016E000F8B540F20F131D4FBE68B289348895B229
:1016F000A4B22340B288E3B14FF6FF627B68328028
:101700001B69B3B114F0080F0CBF00211021E207D0
:1017100048BF41F00401A00748BF41F0080162073B
:1017200048BF41F02001E00548BF41F040010B48AF
:10173000984762060DD56B060BD54FF6BF717A68D8
:1017400025F0400352689BB23180B3810AB103484F
:101750009047BDE8F840FFF753BA00BF6408002087
:101760002DE9F0414FF0804423699B0703D4BDE885
:10177000F041FFF745BA00272761202585F311883E
:101780001E4E626AB6F826E0F36990B2CEEB000115
:101790001A8989B2914206F11C081BD31968724458
:1017A0004145F284DA68C1F80480F161DF6008BF66
:1017B000E76087F311881869904785F31188626A9A
:1017C000B6F826E0F36990B2CEEB00011A8989B22F
:1017D0008A42E3D943450AD07244121A92B2012ACE
:1017E00098BF0222024492B24FF080435A63002312
:1017F00083F31188BDE8F041FFF702BA200F002003
:10180000F8B503685FEA520C03F1005E0EF5405E26
:101810004FEA4E0E426018D0774664460E698869DA
:10182000431CB3428B6128BFCB6800785D1C8D617F
:101830001B78B54240EA032324BFC8688861013C95
:1018400047F8043BEBD10EEB8C0ED3070BD5886920
:101850000C69431C8B61A342007828BFCB68CEF88B
:10186000000028BF8B61EFF31283CBB9EFF3058340
:10187000202383F311888B6808461A448A6000216C
:10188000FFF776FBEFF30584C4F308041CB10023D3
:1018900083F31188F8BDFFF79BFB84F31188F8BD33
:1018A0008B6808461A448A60BDE8F8400021FFF7BB
:1018B0005FBB00BF0000000000000000000000004F
:1018C0003649F8B5486B0D6B828A2F6892B202F4E4
:1018D0005F4383F47F4383F0FF0383823E68CB6AD8
:1018E00026F00F063E602E7A0F246D6804FA06F784
:1018F0001E682F6035685F6825F00F0535601D7A1A
:1019000002F48073AC409BB23C60002B3DD18B60F5
:10191000940544BF43F002038B6057050DD58488BE
:1019200043F0040324F400742404240C8480048809
:10193000A4B244F4007404808B60160544BF43F0E5
:1019400008038B60550444BF43F020038B60D4042C
:1019500013D543F0100310048B601AD4202383F3B3
:1019600011880F486FF00101FFF71AFB002383F382
:101970001188BDE8F840FFF743B9120409D4002BE1
:10198000ECD1BDE8F840FFF73BB9012423468C6059
:10199000BEE743F040038B60E0E700BFD80C0020B7
:1019A000F40C002000000000000000000000000017
:1019B000404870B5446B404A238BA58AADB245EAD6
:1019C000034323F07F43934252D021D8073A9342F6
:1019D00042D00132934213D1A388C26A23F4007328
:1019E0001B0412681B0CA380136843F001031360EF
:1019F000A3889BB243F48053A3805368012B51D931
:101A000015F00A0F18BF238BBDE87040FFF7F8B838
:101A10002A4A934213D002329342F1D1C36A1B681F
:101A20005E6856B32388028C9BB243F4A06342F0F5
:101A3000010202842380BDE87040FFF7E1B8A3886B
:101A4000026B23F400731B0412681B0CA380136841
:101A500043F001031360D3E7038C1A0A0BD003F0A1
:101A6000010343F0F00302F0060213432382C7E7A9
:101A7000038CC3F347032382C2E7A388202223F405
:101A800000731B041B0CA38023889BB243F40073D8
:101A9000238082F311881C303146FFF781FA86F3E8
:101AA0001188ADE7238823F480631B041B0C23807B
:101AB000A6E700BFD80C0020080003008200070042
:101AC000F8B511F00804426B26D1C16A0F2391E8E2
:101AD00080403E68202526F00F063E60097A8B4044
:101AE000CEF80030938823F480531B041B0C9380A2
:101AF000138823F480631B041B0C138013889BB290
:101B000043F40073138085F311881C302146FFF7DE
:101B100047FA84F31188F8BD72B6024B024A9A6202
:101B2000FEE700BF200F0020003D0008000000007D
:101B30002DE9F0410D07044627D5C26A076992E8EE
:101B4000600029680F2321F00F012960117A856A4E
:101B5000BA688B4000213360A9603AB10523037055
:101B600090472378052B04BF0223237000252561AD
:101B7000202383F311884FF0FF3104F11400FFF7A5
:101B80000FFA85F31188BDE8F0818A0712D5036941
:101B90001A78E2B15D68C5B1C268012A41D95B8893
:101BA000520803FB02F3816801EB43012B46BDE8B9
:101BB000F04118474B0708D503695B682BB1BDE8B6
:101BC000F041C268816852081847BDE8F081C16AD7
:101BD0005F6891E8404035680F2325F00F053560B8
:101BE0000D7A816AAB40CEF800308A60A7B1042339
:101BF00003708168C268B8472378042B0CD0202377
:101C000083F31188002104F11400FFF7C9F90023C0
:101C100083F31188BDE8F081022200232270236142
:101C2000EDE72B46BDE8F041816818470000000051
:101C30000EB400B582B003AB53F8041B1A460193EF
:101C400001F0DEFB02B05DF804EB03B0704700BFAB
:101C50001F4B19461A6842F001021A600B681C4AB1
:101C60009B07FBD511461368002003F0F9031360AE
:101C700050604B68164A13F00C0FFAD111461368E6
:101C800043F4803313600B68114A9803FBD5114667
:101C9000536843F4E8135360136843F08073136090
:101CA0000B680B4A9B01FBD5114610B4094B0A4C3B
:101CB000122054601860536843F0020353604B686D
:101CC00003F00C03082BFAD15DF8044B704700BFFA
:101CD000001002400020024000641D0000000000CF
:101CE00000EB8100C36830B458690C464268198A19
:101CF00003788A4228BF0A4603BB1749531C096D63
:101D00005B0801F1005101F5405101EBC4044FEAB9
:101D100044042168C06801F1005101F54051656833
:101D20004FEA4101626007D002380A1F30F8021FF3
:101D3000013B42F8041FF9D130BC7047064BC16823
:101D4000186D00F1005000F5405000EBC400400059
:101D500030BCFFF755BD00BF005C00400000000034
:101D600000EB8101C9688A69536833B1498A013B34
:101D70000B44B3FBF1F313827047012313827047C6
:101D800000EB8103DB68F0B41A6802F00302013A49
:101D9000022A96BF2E4C4FF4007534F812509A6800
:101DA0000AB145F02005DA680AB145F4005547F656
:101DB000700645EA010424F4784424F0F0048A0013
:101DC00044F4004402F1804202F5B84244F0800439
:101DD000146014682E4074405D8A44F4004444F05A
:101DE00080043E2D146005F1FF3426D844F0010430
:101DF000013404EBD474640204F47C44154A1E8A52
:101E0000126D002702F1005303F5405303EBC101AB
:101E100049004B684F60CB68CC60D0F880209319A4
:101E2000C0F880300B680A60D0F880301D44C0F8DC
:101E300080508A68F0BC8B60704744F01F04013406
:101E400064116FEAC4646FEA5444A4B2D6E700BFD9
:101E5000403D0008005C0040000000000000000061
:101E60004168F0B5C9680D4B00290D4D4FF00004D5
:101E70000CBF4FF41C474FF41E474FF0800E402616
:101E80001C6521465C64C3F84CE01F64C0F88060A8
:101E9000C560BDE8F040FFF773BF00BF005C0040C5
:101EA000103D0008000000000000000000000000DD
:101EB0002DE9F04F994B85B05C6C630500F19C8176
:101EC000270511D5DFF858B2944ADBF80410136CDB
:101ED0000D6843F00803136415B158460321A84761
:101EE0008E4B6FF400625A64E60408D58B4B9A6CF3
:101EF000150440F17181894B6FF480525A64A0053A
:101F00000BD5DFF81CB2DBF80430DB680BB15846A8
:101F10009847824B6FF400725A64210440F1D380D9
:101F2000DFF8FCB1DFF8F4A104F00F044FEA8408F5
:101F300008F1804505F5B845D5F80090A61C0BEBD7
:101F4000860319F0800F5F6865D02B68E00023F4EA
:101F5000784323F0F00343F400432B60DAF8503069
:101F6000D7F814E003F1005303F5405303445B003A
:101F70005968DEF80830DEF804200B44CEF808304B
:101F8000D31A00F0BD803A8A9EF800C09A4228BF5A
:101F90001A46BCF1000F40F01281531C0193DEF889
:101FA0000C301944CEF80C10DAF850E0019B0EF119
:101FB000005E0EF5405E70444000D0F800E05B0823
:101FC0000EF1005E0EF5405ED0F804C04FEA4E0EF2
:101FD000426008D00239AEF1040231F8020F013B31
:101FE00042F8040FF9D1202383F3118808F18048C7
:101FF00008F5B848D8F80030002223F4F04323F065
:10200000400383F0300343F4004343F08003C8F8F7
:10201000003082F3118819F4004F4FD02B6819F467
:10202000006F23F4784323F0F00343F080032B6028
:102030005ED1DAF85030B96903F1005303F540532B
:1020400003EBC4035B00DA68104601920A78C0F320
:102050000908002A66D19A6808F1010302F10052CA
:1020600002F540525B084FEA4202C86809D08E462A
:1020700052F8041B013B20F8021BF9D17146DEF82F
:102080000C004044C860088A7F8A8A684B6801381F
:1020900080B24244C8EB0303B84508828A604B60B3
:1020A00016D3A8B12B6823F4904323F0700383F474
:1020B000405343F4004343F080032B60DAF844407C
:1020C00023043FF531AF05B0BDE8F04FFEF798BDF2
:1020D000BBF80A300BEB86060121A140726823EAA7
:1020E0000103D268ABF80A3021460D489047E5E776
:1020F0000BEB8606736821465B6809489847DDE765
:10210000074B01221B89A24023EA0203044A21460D
:1021100013811046BB6898477DE700BF005C004014
:10212000840800209B685FEA580203F1005303F51E
:1021300040534FEA4303C9680293039221D01046EB
:102140009E464B695EF8042B03F10109C1F8149017
:102150001A700B694FEA122C4A699A4228BFCA6862
:10216000531C4B6182F800C00B694A699A4224BF34
:10217000CB684B610138E4D1029B039A03EB8203E5
:102180000293019BDA070BD5029A4B691268581C1F
:1021900048611A700B694A699A4224BFCB684B6147
:1021A000202383F311888B68084643448B60002109
:1021B000FEF7DEFE002383F31188B96963E7DAF8DE
:1021C0005030DEF80C1003F1005303F5405318446F
:1021D0004000FFF715FB06E7DFF874B01A6CDBF878
:1021E000041022F008020D681A64002D3FF483AE3B
:1021F00058460421A8477EE6DFF854B000230222A7
:102200001946ABF87C308BF87E308BF87F30ABF81A
:102210000830ABF80A308BF800200BF108030BF103
:10222000280243F8041F93424FF00005F9D10848F3
:102230008BF86450FFF714FEDBF804301B6813B111
:10224000294603489847034B6FF480625A6437E687
:1022500084080020005C0040000000000000000036
:10226000032AF0B52CD0042A08BF416100231C4684
:102270001D461E46DFF84CE008271EF8022011F02C
:10228000800F4FEA05154FEA03134FEA06164FEA8F
:1022900004140CBF45F00F05134311F4004F0CBF9D
:1022A00046F00F061443013F4FEA4101E7D142686F
:1022B000164034434460026815402B430360F0BD70
:1022C0000161D3E7E03C00080000000000000000CE
:1022D0004FF40056B0460C4B0C4A9B6980B50C4D30
:1022E0000C4F9A613B78C5F81480042B0CBF4FF457
:1022F000FA744FF4FA642046FFF72AF920462E615B
:10230000FFF726F9EEE700BF200F0020403E00084F
:1023100000100140840800200000000000000000C0
:10232000002902DD0A4901F0F3B910B50446094B52
:102330004FF432709B69084A9968234601F020FBEC
:1023400000B110BD2046BDE81040044901F0E0B9DD
:10235000483E0008200F0020B1380008583E000811
:10236000002902DD014901F0D3B97047683E000839
:1023700000210A4608460E46B84B4FF0FF341D694F
:102380002DE980481C611961DD68DC60D960DC6979
:10239000B34D44F08054DC61DC69B24F44F000641A
:1023A000DC612B68DFF8E0E243F48073AE4C2B6015
:1023B0008BB039605EF802300C321E6044F8306039
:1023C000013007284FF00003F4D1A84942F28A5C9B
:1023D0008B46A74C4FF0FF32A04862608469A54F3E
:1023E000DFF8D892DFF8D8A2A34EDFF8D8E244F0A5
:1023F0007D048461A14DFA60A14CC7F804A0DFF808
:10240000C882C7F80090DFF8C492F260C6F804E012
:10241000C6F800E04FF08836EA606E602E60E26039
:102420006660C4F80080C9F80C20C9F80460C9F8D7
:1024300000608269934F944E4FF0010E07F118042B
:1024400042F40072092587F800E07B60BB60FB6006
:102450003B617B613B62FE628261C7F830C0BC6158
:10246000FC61B9624B60C1F808E08D60DBF80820C0
:102470007E4B1207FAD4194605229A608B687B4A74
:1024800013F00403FAD19E46DFF8D0A19360DAF886
:1024900018207E487E4900F10C047E4DDFF830B2F2
:1024A00022F40072DFF82C92DFF82C82CAF8182090
:1024B000A4F10C060122A1F10C004FF0080CF1620E
:1024C000696132702A708BF8002044F8083C73610F
:1024D000F361C6F83490F4603461306328616B7046
:1024E000AB706B60C5F80880C5F80CC0CBF8043041
:1024F0000BF128020BF1440142F804EF8A42C2F8C2
:102500001CE04FF00003F7D14FF6FF7E48F69F4CDA
:102510004FF6FF04DFF844A15F49DAF81C205F485A
:1025200042F00102CAF81C204A68DFF8B09142F478
:1025300000624A604FF080410122C1F828C0C1F812
:102540002CE04FF0800C8B614B63CB604B604A6199
:102550000A604FF08051039289F81CC3C9F88011BA
:10256000C9F800108360D0F80CC04D490CEA04048F
:1025700021434C4CC160E168DFF864C141F08071D7
:10258000E160DCF80010484C1143ABF80830ABF8C0
:102590000A30CCF800101021C1774FF0200804F168
:1025A0001C0180F822800022A360E16104A824605D
:1025B00064602461646121624FF0FF31E38423672A
:1025C00005930693079302930023CDE90823A4F80B
:1025D00024E0049101F0CCF904A8FEF7A1FC66699F
:1025E0003248334920F007032664069840260193B9
:1025F000039A029B6663A666666901F1100E206766
:1026000004F12C00C1F810E0C1F814E08B6184F8EB
:1026100049306366236684F84A206364E463DFF824
:10262000C4E03061DFF8C0C06061A06104F1500017
:1026300020652048C1F800E02CF0070C8B60CB60CF
:1026400004F154016165A165C0F800C01A49019800
:1026500084F848200860022048E000BF00100240D3
:102660000070004080080020680C00200024014019
:102670000000024000080140000C01400010014031
:1026800000140140A00C0020B03D0008D80C002030
:10269000F83D000864080020002004E000ED00E0A0
:1026A0000003FA05F0ED00E0200F002000500020AC
:1026B000701000200C0A0020080A0020884B88882F
:1026C000B8848888388888884488888800180140B9
:1026D00084080020005400400044004000E100E075
:1026E000001000E0210300089710002083F31188F8
:1026F00062B6D149A669B16188F31188DFF878E341
:10270000D4F814C0C4F8303184F89530C4F8B0302F
:10271000C4F8AC30C4F8903004F596710193C74BFF
:10272000C4F88020C4F8B42084F89620C4F884103B
:1027300004F17802C4F82CE104F1A00104F19C0E2C
:1027400084F89400C4F84C31C4F88840C4F88CC0B4
:102750001046CCF81020C4F89CE0C4F8A010C4F8CF
:10276000A410626101F0D4F8019B83F31188B44B8B
:10277000C4F8903088F311882B78B24A012B6A6034
:10278000DFF8F88200F07383D8F81090D8F814C0FE
:10279000D9F80010D8F80830DCF800A0B2F818E03A
:1027A000D1F80080002028F00F08A8706870C1F8E8
:1027B000008099F808604FF00F08D9F8049008FAE3
:1027C00006F6C9F80060DAF80090DCF8046029F039
:1027D0000F09CAF800909CF808904FF0000A08FA18
:1027E00009F8C6F800805669988118829882964840
:1027F000DFF88892B0FBF6F080B21881D068B2F8AA
:102800001AC00028908B4CF0400CEA6840F0C100E0
:102810000CBF4FF020084FF022081FFA8CFC80B24A
:102820004EF4045E48EA02024EF00C0EB3F800804B
:10283000B3F80480A3F800A0A3F810C0988209F1AF
:10284000180C0120A3F80CE0C1F80CC048600A6025
:102850000B68022203430B602A708AF3118820233D
:1028600083F311886B696968EA681B684968DFF857
:1028700010E20D2042F09202C3F80CE058601A609A
:1028800049B14FF6BF72D9F808100A808A8992B20E
:1028900042F040028A811A6801210A431A604FF00F
:1028A0000008697088F31188684D694A2B46DFF883
:1028B000D49168484FF4807C43F8042B05F5157ECD
:1028C00005F10C022972C5F8148005F15401C5F810
:1028D0002890C5F838C005F5AA7905F1300CC5F87F
:1028E0001C90C5F83C90C5F84890C5F84490ED623E
:1028F0002D65C5F840E0E8646B60EA602A61A96173
:1029000069622962C5F830C0C5F834C04FF02009AB
:1029100089F31188504A0223CBF82C50CBF8485049
:10292000CBF83050C5F854222B7288F311884B48ED
:1029300003210522FFF794FC89F311883B78C7F83F
:102940000480012BDFF8409100F0798202233B7074
:102950004FF0000A8AF311884FF0200888F311889D
:1029600040F21120FB6A3A6B1B683D49DFF81CE11D
:102970004FF0100CC7F80CC042F024024FF0030CCB
:102980004FF08009C7F810E0B960D96087F800C03F
:10299000C3F804901A601968BA6A41F0010119601D
:1029A000304FDFF8ECE0304B4FF4807151604FF462
:1029B000E0019760C2F80CE0C2F810A0D162106389
:1029C000536397608AF31188284840211122FFF74A
:1029D00047FC494625481122FFF742FC88F311883D
:1029E000234B234893F800C0224A9A218A23BCF142
:1029F000010F816243624260D0F83480074600F0E4
:102A0000E38141461A4B4FF4004ED86A1B6BD0F855
:102A10000090D3F800C008F110004FF410670023B5
:102A2000C9F80800CCF80800A8F800E0A8F80030C1
:102A3000A8F8047088882DE0203E000811020008E4
:102A4000783E00080808002000512502100A0020E6
:102A5000803D0008C1040008A03D000800100140AE
:102A600008090020030180006AA9A516000C014096
:102A7000D80C0020F03E0008010400086408002083
:102A8000803E0008410B0008A00C0020503D0008CB
:102A90002400FC00576820F03F000004000C92F86E
:102AA00008E088808888DFF814C380B240F02400F2
:102AB0006745888040F35D81B24887420BDCBEF1F8
:102AC000020F00F01F82BEF1030F00F00E8248F6E5
:102AD000FF730B2008848B8312780B88022A9BB229
:102AE00000F04181032A00F03B81012A00F034818B
:102AF0000B80B8F8003002229BB243F00103A8F823
:102B00000030A14B00271A7087F311889F4B4FF4B8
:102B100000721A6140F6B830FEF71AFD202383F3E5
:102B200011889B489B4B024600F12008CBF80430EB
:102B300042F8047F42454FF00003F9D19BF800E0D2
:102B4000954ABEF1010F00F0D08002208BF8000002
:102B5000002686F311888D4A904B4FF40071516125
:102B600020271B6087F311888D4BDFF854C28D4AF4
:102B7000D4F814804FF0010E4021C3F84421C3F86B
:102B800024C183F81EE003F1280203F5927C03F1CF
:102B9000240E1877C3F828615E779E635E639E619A
:102BA0001C61C3F81480D9631846C8F81030C3F804
:102BB0000CC09960C3F824E09A62DA62636100F0A5
:102BC000A7FE86F31188344644B1237F0F2B14D01F
:102BD0004FF4FA60FEF7BCFC002CF6D1D5F8543265
:102BE0001B681B78042BF0D140F6C80040216E4AC8
:102BF0006E4B00F0C5FE0446EAE787F31188A67F16
:102C00000023013EF6B2A67783F31188D6B9237F5D
:102C10000F2B01D03446DBE7637F03F00303012B66
:102C200012D0022BF6D121696269236C11612169EE
:102C30004A6187F311881A6822601C6086F3118844
:102C40003446C5E71C46C3E763692269A4F1080856
:102C50001A612269536154F8083C03F1080903F131
:102C6000100A87F311885046FEF712FA86F311888E
:102C70004B46994504D0984502D81B689945FAD12E
:102C80001A681AB1904501D31346F2E754F8041CB0
:102C900044F8082CC3F8008001F1080054F8082C0F
:102CA00008EB000696420AD0596801F108021A445E
:102CB000904513D05046FEF79BF9002488E77668CC
:102CC00058F800203144083144F8041C596844F88D
:102CD000082C01F108021A449045EBD114E90500D3
:102CE0000A44083283E80500E4E79946DFF8D4C0D7
:102CF0002F49DCF81C602F4F46F40006A2F87C3008
:102D000082F87E3082F87F3013815381CCF81C60CA
:102D10004FF400264FF0D00CC7F840E081F813C301
:102D20004FF0E00EC1F880614FF4801C0E60022667
:102D300081F814E3C1F880C1C1F800C03B6416708B
:102D400040F8049F40454FF00003F9D112488BF83A
:102D50006430FFF785F8F8E623F00A039BB2C7E674
:102D600043F00A03C4E623F008039BB243F00203D6
:102D7000BEE611487B0090FBF3F32520C3F30B0361
:102D80000884A8E6801A0600D80C0020000C014038
:102D90008C080020103E000884080020D40C00207D
:102DA000100D002011020008D1310008E03E00089B
:102DB00000E100E0005C004000512502A086010017
:102DC000D122000800100240DFF86491CDF804C061
:102DD000D9F81030C06A43F40013C9F81030052147
:102DE0004E4A3B46C9F810A0FDF7C2FB05214C4AEC
:102DF0003B46386BFDF7BCFBD9F81C00796ABA6A10
:102E0000484B40F4001E5020C9F81CE041F44051EA
:102E100083F81F0342F440524FF0004E7962C3F82A
:102E200080E1BA62C3F800E07A6883F82003DDF835
:102E300004C0796BC3F884C1C3F804C0E2E506217D
:102E4000394A4B46D9F82C00FDF792FBD9F82C30C3
:102E5000364A1B6836499A608B69D9F8282043F4B2
:102E600000738B61C2F80480C2F808806EE50C2103
:102E7000304A4346D8F81000FDF77AFB0C212E4A61
:102E80004346D8F81400FDF773FBDAF81C30D8F885
:102E90000420C02143F40033CAF81C3089F82613FB
:102EA000B2F818E04023C9F884310EF4A053402151
:102EB000B3F5805FC9F8041005D1D8F80C3043F49D
:102EC000A063C8F80C30D5F81090D5F814C0AB68E2
:102ED000D9F80010DCF800A0181D4FF00008886039
:102EE000CAF80800A5F818805AE407EB87031348CE
:102EF00003EB830390FBF3F36FEA83436FEA93439F
:102F00009BB2E6E50D4807EB470390FBF3F36FEA4E
:102F100043436FEA53439BB2DBE500BFC11A00088D
:102F20009116000800E100E0311B00084C2401402C
:102F30000010024001160008B115000800512502DA
:102F4000022906D0032906D00129064818BF00200F
:102F5000704705487047032A9ABF044B03EBC20031
:102F60000020704770430008403F000850430008AD
:102F7000704700BF000000000000000000000000DB
:102F8000044888420CBF044904490B6813440B6091
:102F9000704700BF08090020140F0020180F002000
:102FA000704700BF000000000000000000000000AB
:102FB000704700BF0000000000000000000000009B
:102FC000704700BF0000000000000000000000008B
:102FD000704700BF0000000000000000000000007B
:102FE000022949D1F8B506460D46202383F31188FE
:102FF000224C0121224AFDF7E3FD30462946214AB1
:10300000FDF7DEFDA369D4F8542204F10C07002576
:1030100016683846636223626FF001016561FDF74F
:10302000A7FFE26B236CA2649B1A6264A36304F1A2
:1030300030006FF00101FDF79BFF201D0121FDF71E
:10304000CFFED4F8543201225979304606EB810381
:10305000DB68B3F812E09B69C3F804E01A70DF6024
:103060009D60FEF77DFED4F8543230465979FDF765
:10307000CFFA85F31188F8BD704700BF100A002011
:10308000003F0008503F0008000000000000000062
:103090000D4B10B518680C46202383F311880121CD
:1030A000FDF786FEFDF794FF002383F31188074A9E
:1030B000E4B210785178431C03F07F03994202D0A8
:1030C00010448470137010BD1C0F0020580E002097
:1030D000002903DD0849094AFEF7AABD202383F32E
:1030E00011884FF080435A6A002383F31188044902
:1030F00092B2FEF79DBD00BFF03F0008FC3F000804
:103100000440000800000000000000000000000073
:10311000002903DD19491A4AFEF78ABD10B5044695
:1031200082B01849184AFEF783FD20461749184A0D
:10313000FEF77EFD20461749174AFEF779FD204627
:103140001649174AFEF774FD20461649164AFEF73F
:103150006FFD20461549164AFEF76AFD20461549BF
:10316000154AFEF765FD154B204600931449154A94
:10317000154BFEF75DFD02B010BD00BFF03F00082B
:103180000C400008144000082840000830400008A7
:10319000444000088C400008A0400008A8400008F7
:1031A000BC400008C8400008DC400008F4400008AB
:1031B00008410008344100084841000884410008E3
:1031C0005C410008744100088041000800000000D4
:1031D0002DE9F047794B04689B69794A98B0D0F89B
:1031E0000480784920469A61FEF722FD08AE0DF171
:1031F0005F0720467449FEF71BFD354623682046CD
:103200005B680DF107010122984770B39DF8071024
:10321000042926D0082911D07F290FD00D2935D0B7
:103220001F29EBD9BD42E9D2236820469B68984705
:103230009DF80730013505F8013CDFE7B542DDD0E8
:10324000236820469B689847236820469B68202176
:103250009847236820469B689DF80710013D9847D2
:10326000CCE720465949FEF7E3FC20465849FEF7D3
:10327000DFFC202383F3118800215648FDF7B0FDC1
:103280000020FDF76DFF18B0BDE8F08752492046D9
:10329000FEF7CEFC002302A92B7030461D4600F03D
:1032A00007FC02A9824600200DF10C0900F000FC89
:1032B00050B1042D1DD049F8040B02A9002001359E
:1032C00000F0F6FB0028F4D118AB03EB850343F8BC
:1032D000540CBAF1000F8CD05046404900F080FCED
:1032E00070B9002DC5D020463D493C4AFEF7A0FCF0
:1032F0007FE720463B49FEF79BFC0023079378E7D6
:103300005046394900F06CFC30B92046C5B134490B
:10331000354AFEF78DFC6CE7344B1868994618B9AE
:1033200031E059F8080F70B3514600F059FC0028FD
:10333000F7D1D9F80430294603AA2046984758E720
:103340002B49FEF775FC294B1A681D463AB12046F9
:103350002849FEF76DFC55F8082F002AF7D1B8F17F
:10336000000F0BD0D8F8002042B145462046214935
:10337000FEF75EFC55F8082F002AF7D120461649C3
:10338000FEF756FC35E7B8F1000F0DD0D8F8000075
:1033900050B1C14602E059F8080F28B1514600F07B
:1033A0001FFC0028F7D1C4E7524620461249FEF719
:1033B0003FFC20461149FEF73BFC1AE7200F002096
:1033C0009041000898410008BC410008C441000831
:1033D00018420008D40C0020A8420008E041000870
:1033E000F03F0008C8410008E84100082808002014
:1033F000F0410008084200080C4200081042000892
:103400002DE9F04F81468A468B4687B015460DF16F
:103410000D0303AA9B1A01934FF000089BF80010BC
:103420000BF1010379B1252911D09B46D9F8002071
:103430004846926890479BF8001008F101080BF18C
:1034400001030029EFD1404607B0BDE8F08F9BF89B
:10345000012000262D2A03BF9BF802200BF1020356
:103460004FF0010A4FF0000A302A03BF5A780133A7
:1034700030272027591C06E02B7804359BF80020C4
:1034800003EB40060131A2F13003DBB2092B8B467E
:1034900006EB8600F2D92A2AEED02E2A4FF0000140
:1034A00043D002F0DF034C2B4ED0A2F1440034286D
:1034B00000F2F680DFE810F0EA00F400F400F40017
:1034C000F400EA00F400F400F400F400F400E80072
:1034D000F400F400F400F400F400DD00F400F40063
:1034E000F100F400F400F400F400F400F400F4003F
:1034F000F400F400F400A100EA00F400F400F40089
:10350000F400EA00F400F400F400F400F400E80031
:10351000F400F400F4007100F400DD00F400F400A5
:10352000F1002B78043503EB40011BF8012B01EB74
:103530008100A2F13003DBB2092BF4D92A2AF0D0A2
:1035400002F0DF034C2BB0D19BF80030002B00F0D1
:10355000A780A3F144020BF1010B342A00F29F80F3
:10356000DFE802F0949D9D9D9D949D9D9D9D9D9263
:103570009D9D9D9D9D879D9D9B9D9D9D9D9D9D9D93
:103580009D9D9D4B949D9D9D9D949D9D9D9D9D92DA
:103590009D9D9D1B9D879D9D9B002C68594B0435CF
:1035A000002C08BF1C462378002900F09380002BD4
:1035B00000F095800139204601E0013903D410F86C
:1035C000013F002BF9D1001B361A431E202726EAA3
:1035D000E676BAF1000F1FD0002B009334DA002EEC
:1035E0003FF41CAF3446D9F8003048469B68394652
:1035F0009847013CF7D1B04410E7019A2B68104678
:103600008DF80C300435531E202703AC361A26EAF9
:10361000E676BAF1000FDFD10093C6F1000ABAF1E5
:10362000000F44D021782D2946D05646D9F80030D5
:1036300048469B68394698470136F7D1009BCAEB4C
:103640000808002BFFF6EAAEDDF800A0D9F800303C
:103650000AF1FF3A9B68484614F8011B9847BAF1F3
:10366000FF3FF3D1009B08F10108002BA8BF98444D
:10367000B5E70A22296803A8043500F039FA03AB3C
:10368000C01A431E03ACC1E70822F3E729680435DA
:1036900000292EDB03A80A22EFE71022EAE71A46E8
:1036A000019B03AC18468DF80C20013BAEE7009B54
:1036B0005646002BC8DAB1E6302FB6D1D9F8003023
:1036C00048469B689847009B0134013B08F101087C
:1036D0000093AAE747F6FE71002B7FF46CAF26EA51
:1036E000E676BAF1000F0BD14FF0FF33009320279D
:1036F00093E72D2349428DF80C300DF10D00CAE7F8
:1037000020276CE7244200080000000000000000B1
:103710000EB400B582B003AB53F8041B1A460193F4
:10372000FFF76EFE02B05DF804EB03B0704700BF18
:103730002DE9F04F002585B0A9428DF80C508DF889
:103740000D508DF80E50019005DD4E49FFF7E0FF5A
:1037500005B0BDE8F08F4C4904ACDFF83C81FFF7C1
:10376000D7FF2F4604F8055D4FF0010903AD202275
:1037700082F3118803204FEA49030021A8F8203082
:1037800088F80000C8F80810D8F8343081F31188A0
:10379000D8F83000D8F82860D0F800C0D8F82C004D
:1037A0004FF0010B0068CCF80060D8F82460CCF82A
:1037B0000C404FF0804ACCF804B00660C560C0F8F9
:1037C00004B0DAF82400D64600F1640C1FFA8CFC31
:1037D0001FFA80FACAEB0C0C01E081F3118882F326
:1037E0001188188B860702D41888800521D5DEF849
:1037F000240080B2CAEB00006045EEDB052388F8A8
:103800000030002383F31188D8F80830002B32D021
:1038100009F101090420FDF79BFEB9F17F0FA6D144
:10382000002F95D101981949FFF772FF05B0BDE847
:10383000F08F9A88164992B242F40072D1F818E0DB
:103840009A801A88032092B242F480721A80114B37
:103850001421CEF82030C8F81CE0FDF7A9FC013097
:10386000CCD00D4A02231370002383F31188D8F8BB
:103870000830002BCCD1019808494A46FFF748FF91
:103880000137C5E72C420008404200087842000892
:10389000200F0020F40C0020D80C0020504200081B
:1038A000002902DD0149FFF733BF7047AC42000831
:1038B000114E124BB469124D80B528601C60202750
:1038C00087F31188636B6FF00102D90708D40123D5
:1038D00023620A20FDF7C4FB636B03F00102D243AD
:1038E00013400021636381F3118806492868FFF7BC
:1038F0000FFFB469E4E700BF200F00201C0F002079
:10390000DC0E0020BC4200080000000000000000A7
:1039100070B40446134B81689D690026A86826622E
:1039200081420BD826771B689A689142FBD95A6866
:103930002360626014605C6070BC70471A462E772A
:10394000126891688842FBD95068012668602A6035
:10395000056055602677294620469C6170BCFCF7BF
:103960004FBC00BF200F002000000000000000003E
:10397000014B5B6883607047001000E000000000AE
:103980002DE9F84FC41D1F4605460E46904624F00B
:103990000704202383F311883F48FDF779FB0023B8
:1039A00083F311883D4B03E04268944250D90346AB
:1039B00018680028F8D1DFF8EC9009F11000FDF745
:1039C00017FBD9F80030002B5FD004F108009847AE
:1039D00000285AD04460C0F8009000F10804002C80
:1039E00056D0202383F311882D4BA5F12400D3F862
:1039F00014C0DFF8B4B0221800254FF0010E04F116
:103A000028014FF0020A04F12409E26044F8008022
:103A10005760C2F820B02046A6602361C4F814C0E5
:103A2000E66384F81CA0A5636563A56184F81EE0C5
:103A3000CCF81040C4F8249084F81DE0A162E16243
:103A40005C61FFF765FF85F311882046BDE8F88FBC
:103A500004F1080E964509D902681A600446114817
:103A600044F8080B1030FDF7C3FAB8E76FF0070C05
:103A7000C4EB0C0C9444026800EB0E0140F80E20DD
:103A8000C1F804C019604460E8E70020BDE8F88F81
:103A90002046BDE8F88F00BF80100020781000207D
:103AA000200F00207010002011020008000000000C
:103AB00038B50D46044690B1286020460B4900F009
:103AC000D7F804442046094900F0AAF860B1421C26
:103AD00000232A600370237823B1204638BD0C6888
:103AE000002CEAD1002038BD2860F4E780430008AC
:103AF000F0B400F10B073C460D46B1FBF2F6B5FB06
:103B0000F2F502FB161101F13003392BC8BF01F1A8
:103B10003703DBB204F8013D3146002DEDD13A1BED
:103B2000024401E014F8013F00F8013B9042F9D152
:103B3000F0BC704700000000000000000000000022
:103B400070B4840746D0541E002A41D0CDB203463B
:103B500002E0621EE4B3144603F8015B9A07F8D151
:103B6000032C2ED9CDB245EA05250F2C45EA054593
:103B700019D9264603F11002103E0F2E42F8105CB0
:103B800042F80C5C42F8085C42F8045C02F1100256
:103B9000F2D8A4F1100222F00F0204F00F04103248
:103BA000032C13440DD91E462246043A032A46F834
:103BB000045BFAD8221F22F003020432134404F0FB
:103BC00003042CB1C9B21C4403F8011BA342FBD16E
:103BD00070BC704714460346C2E700BF00000000F7
:103BE0000E4B30B41D6802E09B1A14D19AB110F844
:103BF000013BEA18527802F00302012A11F8012B66
:103C000008BF2033AC18647804F00304012CEBD116
:103C100020329B1AEBD0184630BC70474008002079
:103C200030B40478ECB10D78ADB1AC420ED00A4698
:103C300001E09C4209D012F8013F002BF9D110F8A5
:103C4000014F002CF0D1157800E02546002D08BF6B
:103C5000002030BC704710F8014F0A46002CE3D119
:103C6000F1E7204630BC7047000000000000000073
:103C700070B40478A4B105460E784EB1B4420AD0AF
:103C80000A4601E09C4206D012F8013F002BF9D110
:103C9000281A70BC704715F8014F002CEDD1F7E7DA
:103CA0002046F6E7000000000000000000000000D1
:103CB0000000000000000000000000000000000004
:103CC00000000000000000000000000000000000F4
:103CD00001000000000000000000000000000000E3
:103CE0000402040808000307080808080808080870
:103CF0000B0F0000000000000000000000000000AA
:103D0000444D41206661696C7572650000000000D9
:103D100000000000510700086106000811040008B7
:103D20004000400048080020480800200100000032
:103D30005C080020000000000000000000000000FF
:103D40000004000000060000000000000000000069
:103D500001000800812F0008712F000800000000FA
:103D6000000080002400FC00000000000000700043
:103D7000110200006AA9A516000000000000000062
:103D8000B1130008D11400083114000841150008CF
:103D90002114000831150008A1130008C1140008FF
:103DA0008408002001010200000000000000000063
:103DB000080002400400024000000B001C0002400A
:103DC0000400024004010C003000024004000240E4
:103DD00008020D0044000240040002400C030E00E3
:103DE000580002400400024010040F006C00024022
:103DF000040002401405100080000240040002404C
:103E00001806110000000000000000000000000083
:103E1000E12F0008412F0008C10200080000000047
:103E20006D61696E00160118040244080C10141824
:103E3000001C1D1E0000000000000000000000002B
:103E4000626C696E6B65720055736167653A2077C5
:103E5000726974650D0A00006F7574206F66206DBD
:103E6000656D6F72790D0A0055736167653A20744C
:103E70006573740D0A00000069646C650000000041
:103E80005374617274696E672E2E2E0D0A00000045
:103E90006D656D00696963006164635F7761746378
:103EA0006800000073657269616C0000000000002A
:103EB000903E0008A1380008943E00083137000801
:103EC000983E000861230008A43E00082123000852
:103ED00000000000000000000000000000000000E2
:103EE000100A0020B03E00080000000000000000A2
:103EF00001000000A0860100010000000000000099
:103F00000200000000000000910E0008110E0008E1
:103F100040004000E00E0020000F002002000000E2
:103F20000000000000000000000000000000000091
:103F3000040309040000000000000000000000006D
:103F400043000000A03F0008000000000000000047
:103F50000300000000000000B102000800000000A3
:103F600010000000F00E0020000000000100000022
:103F70000000000000000000000000000000000041
:103F80001201100102000040AF1E040000020102F5
:103F9000030100000000000000000000000000001D
:103FA00009024300020100C03209040000010202BC
:103FB000010005240010010524010001042402026F
:103FC0000524060001070582030800FF090401001B
:103FD000020A0000000705010240000007058102F7
:103FE0004000000000000000000000000000000091
:103FF00055736167653A2025730D0A0073797374F0
:10400000696D6500256C750D0A000000696E666FAC
:10401000000000004B65726E656C3A202020202065
:10402000202025730D0A0000332E302E31000000B1
:10403000436F6D70696C65723A20202020202573D3
:104040000D0A000047434320342E392E33203230EE
:10405000313530353239202872656C6561736529D8
:10406000205B41524D2F656D6265646465642D343B
:104070005F392D6272616E6368207265766973695B
:104080006F6E203232373937375D00004172636816
:1040900069746563747572653A2025730D0A0000B2
:1040A00041524D76372D4D00436F72652056617237
:1040B00069616E743A2025730D0A0000436F7274B3
:1040C00065782D4D33000000506F727420496E6684
:1040D0006F3A2020202025730D0A0000416476618C
:1040E0006E636564206B65726E656C206D6F6465D0
:1040F00000000000506C6174666F726D3A202020E1
:10410000202025730D0A000053544D3332463130C0
:104110007820506572666F726D616E6365204C69C0
:104120006E65204D656469756D2044656E736974B4
:1041300079000000426F6172643A20202020202024
:10414000202025730D0A00004C6561664C61627386
:10415000204D61706C65204D696E69004275696C17
:10416000642074696D653A202020257325732573BA
:104170000D0A00004E6F7620313120323031370089
:10418000202D200031323A35303A30360000000020
:104190007368656C6C0000000D0A535465636828F1
:1041A0007361616761722E7465636840676D6169F0
:1041B0006C2E636F6D290D0A000000006775657332
:1041C000743E20005E440000746F6F206D616E7954
:1041D00020617267756D656E74730D0A00000000D2
:1041E000657869740000000068656C70000000006C
:1041F000436F6D6D616E64733A2068656C70206505
:1042000078697420000000002573200025730000E9
:10421000203F0D0A000000000D0A6C6F676F757477
:1042200000000000286E756C6C29000055736167F2
:10423000653A20746872656164730D0A00000000BD
:104240007363616E6E696E672E2E0D0A00000000AA
:1042500049206775657373206920676F74207468DF
:10426000652061646472657373203A202564202898
:10427000646563290D0A0000536F72727921204E24
:104280006F2044657669636520666F756E642121D1
:10429000212054727920616E6F74686572206D659B
:1042A00074686F64202121210D0A00005573616735
:1042B000653A206D656D0D0A00000000476F74209F
:1042C0006576656E74205245435F444154415F55A5
:1042D00041525400000000000000000000000000F7
:1042E00012034C006500610066004C006100620032
:1042F000730000000000000000000000000000004B
:104300003803430068006900620069004F005300F1
:104310002F00520054002000560069007200740003
:10432000750061006C00200043004F004D0020002C
:1043300050006F00720074000000000000000000D8
:1043400008033300300031000000000000000000CE
:1043500004000000303F000812000000E0420008A6
:104360003800000000430008080000004043000837
:1043700012000000803F0008000000000000000064
:104380002009000000000000000000000000000004
:104390000020202020202020202028282828282015
:1043A000202020202020202020202020202020200D
:1043B0002088101010101010101010101010101075
:1043C0001004040404040404040404101010101065
:1043D000101041414141414101010101010101012F
:1043E0000101010101010101010101011010101081
:1043F0001010424242424242020202020202020201
:104400000202020202020202020202021010101054
:10441000200000000000000000000000000000007C
:10442000000000000000000000000000000000008C
:10443000000000000000000000000000000000007C
:10444000000000000000000000000000000000006C
:10445000000000000000000000000000000000005C
:10446000000000000000000000000000000000004C
:10447000000000000000000000000000000000003C
:10448000000000000000000000000000000000002C
:01449000002B
:104498000096000000000800D12F0008C12F000876
:1044A800A12F000891300008B12F000800960000E5
:1044B80000000040000000000C4000081131000816
:1044C800FC3F0008D1300008000000000000000098
:0444D8009043000805
:0400000508000141AD
:00000001FF
