:020000040800F2
:1000000000040020410100082126000821260008E4
:1000100021260008212600082126000821260008A4
:10002000212600082126000821260008E11B0008DF
:100030002126000821260008212600082126000884
:100040002126000821260008212600082126000874
:100050002126000821260008212600082126000864
:100060002126000821260008212600087104000826
:100070004104000811040008E1030008B10300086E
:1000800081030008510300082126000871140008AC
:10009000B1170008212600082126000821260008A3
:1000A0002126000821260008212600082126000814
:1000B000B10200082126000821260008A10400083A
:1000C000C105000821260008212600082126000875
:1000D00021260008212600083102000821260008F8
:1000E00021260008212600082126000821260008D4
:1000F00021260008212600082126000821260008C4
:1001000021260008212600082126000821260008B3
:1001100021260008212600082126000821260008A3
:100120002126000821260008212600082126000893
:100130002126000821260008212600082126000883
:1001400072B6214880F30988022080F31488BFF337
:100150006F8F02F07DFA01F0A3F91C481C491D4A7B
:1001600091423CBF41F8040BFAE71B49164A914201
:100170003CBF41F8040BFAE71849194A194B9A4257
:100180003EBF51F8040B42F8040BF8E70020164973
:10019000164A91423CBF41F8040BFAE702F050FACC
:1001A000134C144DAC4203DA54F8041B8847F9E7AA
:1001B00002F0A6FA104C114DAC4203DA54F8041BBD
:1001C0008847F9E702F034BA000800205555555524
:1001D000000000200004002000040020A8380008CF
:1001E000000800203408002038080020000F0020FC
:1001F00040010008400100084001000840010008DB
:100200002DE9F04FC1F80CD0D0F80CD0BDE8F08F3C
:10021000002383F311882846A047002002F0F8F954
:1002200002F036F800DFFEE70000000000000000EA
:10023000F8B540F20F131D4FBE68B289348895B2ED
:10024000A4B22340B288E3B14FF6FF627B683280EC
:100250001B69B3B114F0080F0CBF00211021E20795
:1002600048BF41F00401A00748BF41F00801620700
:1002700048BF41F02001E00548BF41F040010B4874
:10028000984762060DD56B060BD54FF6BF717A689D
:1002900025F0400352689BB23180B3810AB1034814
:1002A0009047BDE8F84001F08BBF00BF280D00204B
:1002B0002DE9F0414FF0804423699B0703D4BDE84A
:1002C000F04101F07DBF00272761202585F31188CB
:1002D0001E4E626AB6F826E0F36990B2CEEB0001DA
:1002E0001A8989B2914206F11C081BD3196872441D
:1002F0004145F284DA68C1F80480F161DF6008BF2B
:10030000E76087F311881869904785F31188626A5E
:10031000B6F826E0F36990B2CEEB00011A8989B2F3
:100320008A42E3D943450AD07244121A92B2012A92
:1003300098BF0222024492B24FF080435A630023D6
:1003400083F31188BDE8F04101F03ABFB00D002001
:10035000074B08481968026BC1F3036110B50C061E
:100360005C600AB1406B9047BDE8104001F028BFC7
:10037000000002408808002000000000000000008B
:10038000074B08481968826AC1F3035110B50C0580
:100390005C600AB1C06A9047BDE8104001F010BF30
:1003A000000002408808002000000000000000005B
:1003B000074B08481968026AC1F3034110B50C04E1
:1003C0005C600AB1406A9047BDE8104001F0F8BE99
:1003D000000002408808002000000000000000002B
:1003E000074B084819688269C1F3033110B50C0343
:1003F0005C600AB1C0699047BDE8104001F0E0BE02
:1004000000000240880800200000000000000000FA
:10041000074B084819680269C1F3032110B50C02A3
:100420005C600AB140699047BDE8104001F0C8BE69
:1004300000000240880800200000000000000000CA
:10044000074B084819688268C1F3031110B50C0105
:100450005C600AB1C0689047BDE8104001F0B0BED2
:10046000000002408808002000000000000000009A
:1004700008B5074B074A196801F00F015960136866
:100480000BB150689847BDE8084001F099BE00BF25
:10049000000002408808002000000000000000006A
:1004A000414A38B5546B4149238BA58AADB245EA20
:1004B000034323F07F438B4252D021D807398B422C
:1004C00042D001318B4213D1A388D26A23F4007346
:1004D0001B0412681B0CA380136843F00103136014
:1004E000A3889BB243F48053A3805368012B54D953
:1004F00015F00A0F18BF238BBDE8384001F060BE2D
:100500002B498B4213D002318B42F1D1D36A1B6845
:10051000596851B32388118C9BB243F4A06341F016
:10052000010111842380BDE8384001F049BEA38851
:10053000126B23F400731B0412681B0CA380136856
:1005400043F001031360D3E7138C1A0A0BD003F0B6
:10055000010343F0F00302F0060213432382C7E7CE
:10056000138CC3F347032382C2E7A388202023F41C
:1005700000731B041B0CA38023889BB243F40073FD
:10058000238080F31188D06918B10162D16101F034
:1005900097FE002383F31188AAE7238823F480635E
:1005A0001B041B0C2380A3E7700D00200800030030
:1005B00082000700000000000000000000000000B2
:1005C0003849F8B5486B0D6B828A2F6892B202F4F5
:1005D0005F4383F47F4383F0FF0383823E68CB6AEB
:1005E00026F00F063E602E7A0F246D6804FA06F797
:1005F0001E682F6035685F6825F00F0535601D7A2D
:1006000002F48073AC409BB23C60002B42D18B6003
:10061000940544BF43F002038B6057050DD58488D1
:1006200043F0040324F400742404240C848004881C
:10063000A4B244F4007404808B60160544BF43F0F8
:1006400008038B60550444BF43F020038B60D4043F
:1006500018D543F0100310048B601FD4202383F3BC
:100660001188C8690F4B30B16FF00102026200229D
:10067000DA6101F025FE002383F31188BDE8F8401C
:1006800001F09EBD120409D4002BE7D1BDE8F8406B
:1006900001F096BD012423468C60B9E743F0400386
:1006A0008B60DBE7700D0020000000000000000000
:1006B000F8B503685FEA520C03F1005E0EF5405E88
:1006C0004FEA4E0E426018D0774664460E6988693C
:1006D000431CB3428B6128BFCB6800785D1C8D61E1
:1006E0001B78B54240EA032324BFC8688861013CF7
:1006F00047F8043BEBD10EEB8C0ED3070BD5886982
:100700000C69431C8B61A342007828BFCB68CEF8EC
:10071000000028BF8B61EFF31283CBB9EFF30583A1
:10072000202383F311888B6808461A448A600021CD
:1007300001F036FFEFF30584C4F308041CB1002375
:1007400083F31188F8BD01F0ABFD84F31188F8BD87
:100750008B6808461A448A60BDE8F840002101F021
:100760001FBF00BF000000000000000000000000EC
:10077000012230B402FA01F304899BB213EA0405A2
:1007800002D030BC10467047890001F1804101F56C
:10079000B8410A68234322F4F04222F0400282F07A
:1007A000300242F4004242F080020381284630BC0D
:1007B0000A60704700000000000000000000000018
:1007C00090F8642038B5062A0AD80123934013F024
:1007D000670F044611D113F0080502D1DB062ED4B1
:1007E00038BDC3689B699B68002BF9D1036F03B1C7
:1007F0009847002384F8643038BD1C4A4168136868
:100800000D6823F4F04323F0400383F0100343F416
:10081000004343F080031360136823F4904323F0F4
:10082000700383F4805343F4004343F08003136068
:100830000DB10521A847062384F8643038BDC3688C
:1008400005225B69294680F864201D70DD605D60CB
:100850009D6000F06DFE202383F311882046294619
:10086000FFF786FF85F3118838BD00BF005C0040AC
:10087000012230B402FA01F344899BB213EA040561
:1008800002D030BC10467047890001F1804101F56B
:10089000B8410A68234322F4904222F0700282F4A5
:1008A000405242F4004242F080024381284630BC6C
:1008B0000A60704700000000000000000000000017
:1008C00038B590F864300446062B26D8DFE803F0EC
:1008D00004452D0404260400334A416813680D685A
:1008E00023F4F04323F0400383F0100343F4004368
:1008F00043F080031360136823F4904323F07003E4
:1009000083F4805343F4004343F0800313600DB13C
:100910000521A847062384F8643038BD036F03B16E
:100920009847002384F8643038BDC3689B6900256C
:10093000032284F8642029461D70DD605D609D609F
:10094000204600F035FE202383F3118820462946F7
:10095000FFF78EFF85F3118838BD90F87B2090F863
:100960007A30C16E43EA02238B42C368DED91D8A06
:10097000B1FBF5F205FB1215002DD7D15B692946B5
:100980001D70DD605D609D6000F0D2FD202383F36B
:10099000118820462946FFF7EBFE85F311880223D4
:1009A00084F8643038BD00BF005C004000000000E7
:1009B000F8B50446BC4B00221B6D80F8642003F19F
:1009C000005303F5405303EBC10149008B6800F16C
:1009D000740203F1005303F540535B0000F17C0601
:1009E00053F8041B22F8021BB242F9D163689B68DA
:1009F0006BB32046984750B3E56E94F8743094F882
:100A00007B1094F87A2042EA0122AA423CBF1546A4
:100A1000E26613F0800FE36840F0B280002D40F0F2
:100A200097805B69052284F8642020461D70DD6094
:100A30005D609D60294600F07BFD202383F31188D3
:100A400020462946FFF794FE85F31188F8BD94F8F7
:100A5000743013F0600722D0934A616813680D6800
:100A600023F4F04323F0400383F0100343F40043E6
:100A700043F080031360136823F4904323F0700362
:100A800083F4805343F4004343F08003136015B1B3
:100A900020460521A847062384F86430F8BD94F861
:100AA000755003F07F0242EA0525B5F5407F00F05E
:100AB0001A8118D9B5F5C06F00F0FC8040F28F8024
:100AC000B5F5106F00F0998040F60242954200F0B3
:100AD000E380B5F5006FBFD104F17F0201252767E0
:100AE000A266E5668BE7022D00F00D8140F2CA8018
:100AF000B5F5807F00F09480B5F5817FACD194F896
:100B00007620002AA8D194F8781011F00F021AD09C
:100B1000920002F1804202F5B84211F0800F116894
:100B200040F0158101F44051B1F5405F0BD01368DE
:100B300023F4F04323F0400343F4204343F08003C5
:100B4000136094F874300025A566E566256756E7BE
:100B50009B69A26E0026042184F864102046DA60A6
:100B60005D601E709E60314600F022FD202383F3FD
:100B7000118820463146FFF77BFE86F31188F8BDC9
:100B8000BDB15B69A26E0026012184F86410204685
:100B9000DA605D601E709E60314600F0C9FC202363
:100BA00083F3118820463146FFF7E2FD86F3118872
:100BB000F8BD9B69032284F8642020461D70DD6027
:100BC0005D609D60294600F0F3FC202383F31188CB
:100BD00020462946FFF74CFE85F31188F8BD40F208
:100BE000023295422CD0B5F5A06F7FF435AF2F4A75
:100BF000A766E7663D46226701E794F8762084F809
:100C00007F20002A40F095800322227062681268DB
:100C1000002A98D020460221904794F8743092E739
:100C200094F87620012A7FF417AFB4F87C20A766E9
:100C300022F00202E76627673D46A4F87C20DEE644
:100C400094F87620002A7FF407AF94F8781011F01A
:100C50000F023FF478AF930003F1804303F5B843EC
:100C600009061A6800F1878022F4904222F070028F
:100C700082F4805242F4004242F080021A6094F8FA
:100C8000743060E72DB902222567A666E266154634
:100C9000B5E6012D7FF4E0AE054902250022A166EC
:100CA000E5662267ABE600BF005C0040611B000800
:100CB00010320008616894F8792094F878304D6813
:100CC00043EA0223204694F8771094F87620A84748
:100CD00000283FF4C1AE43680568A366E566276750
:100CE00094F874308BE694F87620012A7FF4B4AE41
:100CF000B4F87C20A76642F00202E76627673D460B
:100D0000A4F87C207BE694F87820224912F0800F2A
:100D100002F00F0251F822200ED112F440523FF49B
:100D20009BAEB2F5805F0DD11B4AE5662767A266D0
:100D300065E60422227069E712F030023FF48CAEBF
:100D4000102AF1D0154AE5662767A26657E601F03A
:100D5000300130293FF4F7AE136823F4F04323F059
:100D6000400383F0200343F4004343F08003136007
:100D700094F87430E7E622F4F04222F0400282F068
:100D8000100242F4004242F080021A6094F874307B
:100D9000D9E600BF005C0040303200082032000875
:100DA000536970B5144606460D4623B11846002116
:100DB000102202F075F9A06918B10021142202F086
:100DC0006FF906EB8503DC6030462946BDE87040CC
:100DD00000F056BC00000000000000000000000011
:100DE000022906D0032906D00129064818BF002091
:100DF000704705487047032A9ABF044B03EBC200B3
:100E000000207047403600082033000820360008D4
:100E10002DE9F04F81468A468B4687B015460DF185
:100E20000D0303AA9B1A01934FF000089BF80010D2
:100E30000BF1010379B1252911D09B46D9F8002087
:100E40004846926890479BF8001008F101080BF1A2
:100E500001030029EFD1404607B0BDE8F08F9BF8B1
:100E6000012000262D2A03BF9BF802200BF102036C
:100E70004FF0010A4FF0000A302A03BF5A780133BD
:100E800030272027591C06E02B7804359BF80020DA
:100E900003EB40060131A2F13003DBB2092B8B4694
:100EA00006EB8600F2D92A2AEED02E2A4FF0000156
:100EB00043D002F0DF034C2B4ED0A2F14400342883
:100EC00000F2F680DFE810F0EA00F400F400F4002D
:100ED000F400EA00F400F400F400F400F400E80088
:100EE000F400F400F400F400F400DD00F400F40079
:100EF000F100F400F400F400F400F400F400F40055
:100F0000F400F400F400A100EA00F400F400F4009E
:100F1000F400EA00F400F400F400F400F400E80047
:100F2000F400F400F4007100F400DD00F400F400BB
:100F3000F1002B78043503EB40011BF8012B01EB8A
:100F40008100A2F13003DBB2092BF4D92A2AF0D0B8
:100F500002F0DF034C2BB0D19BF80030002B00F0E7
:100F6000A780A3F144020BF1010B342A00F29F8009
:100F7000DFE802F0949D9D9D9D949D9D9D9D9D9279
:100F80009D9D9D9D9D879D9D9B9D9D9D9D9D9D9DA9
:100F90009D9D9D4B949D9D9D9D949D9D9D9D9D92F0
:100FA0009D9D9D1B9D879D9D9B002C68594B0435E5
:100FB000002C08BF1C462378002900F09380002BEA
:100FC00000F095800139204601E0013903D410F882
:100FD000013F002BF9D1001B361A431E202726EAB9
:100FE000E676BAF1000F1FD0002B009334DA002E02
:100FF0003FF41CAF3446D9F8003048469B68394668
:101000009847013CF7D1B04410E7019A2B6810468D
:101010008DF80C300435531E202703AC361A26EA0F
:10102000E676BAF1000FDFD10093C6F1000ABAF1FB
:10103000000F44D021782D2946D05646D9F80030EB
:1010400048469B68394698470136F7D1009BCAEB62
:101050000808002BFFF6EAAEDDF800A0D9F8003052
:101060000AF1FF3A9B68484614F8011B9847BAF109
:10107000FF3FF3D1009B08F10108002BA8BF984463
:10108000B5E70A22296803A8043501F0E1FF03ABA4
:10109000C01A431E03ACC1E70822F3E729680435F0
:1010A00000292EDB03A80A22EFE71022EAE71A46FE
:1010B000019B03AC18468DF80C20013BAEE7009B6A
:1010C0005646002BC8DAB1E6302FB6D1D9F8003039
:1010D00048469B689847009B0134013B08F1010892
:1010E0000093AAE747F6FE71002B7FF46CAF26EA67
:1010F000E676BAF1000F0BD14FF0FF3300932027B3
:1011000093E72D2349428DF80C300DF10D00CAE70D
:1011100020276CE76033000800000000000000009A
:101120000EB400B582B003AB53F8041B1A4601930A
:10113000FFF76EFE02B05DF804EB03B0704700BF2E
:10114000002903DD0849094AFFF7EABF202383F39A
:1011500011884FF080435A6A002383F311880449B1
:1011600092B2FFF7DDBF00BF683300087433000898
:101170007C330008000000000000000000000000B8
:10118000002903DD19491A4AFFF7CABF10B5044602
:1011900082B01849184AFFF7C3FF20461749184A7A
:1011A000FFF7BEFF20461749174AFFF7B9FF204651
:1011B0001649174AFFF7B4FF20461649164AFFF7AB
:1011C000AFFF20461549164AFFF7AAFF20461549EA
:1011D000154AFFF7A5FF154B204600931449154A01
:1011E000154BFFF79DFF02B010BD00BF683300082C
:1011F000843300088C330008A0330008A8330008AB
:10120000BC330008043400081834000820340008F7
:101210003434000840340008543400086C340008AA
:1012200080340008AC340008C0340008FC340008E6
:10123000D4340008EC340008F83400080000000042
:101240002DE9F047794B04689B69794A98B0D0F84A
:101250000480784920469A61FFF762FF08AE0DF1DD
:101260005F0720467449FFF75BFF35462368204639
:101270005B680DF107010122984770B39DF80710D4
:10128000042926D0082911D07F290FD00D2935D067
:101290001F29EBD9BD42E9D2236820469B689847B5
:1012A0009DF80730013505F8013CDFE7B542DDD098
:1012B000236820469B689847236820469B68202126
:1012C0009847236820469B689DF80710013D984782
:1012D000CCE720465949FFF723FF20465849FFF73E
:1012E0001FFF202383F311880021564801F000F8E6
:1012F000002001F06DF918B0BDE8F0875249204692
:10130000FFF70EFF002302A92B7030461D4601F0A7
:101310007FFE02A9824600200DF10C0901F078FE43
:1013200050B1042D1DD049F8040B02A9002001354D
:1013300001F06EFE0028F4D118AB03EB850343F8EF
:10134000540CBAF1000F8CD05046404901F0F8FE21
:1013500070B9002DC5D020463D493C4AFFF7E0FE5C
:101360007FE720463B49FFF7DBFE0023079378E742
:101370005046394901F0E4FE30B92046C5B1344940
:10138000354AFFF7CDFE6CE7344B1868994618B91B
:1013900031E059F8080F70B3514601F0D1FE002832
:1013A000F7D1D9F80430294603AA2046984758E7D0
:1013B0002B49FFF7B5FE294B1A681D463AB1204666
:1013C0002849FFF7ADFE55F8082F002AF7D1B8F1EC
:1013D000000F0BD0D8F8002042B1454620462149E5
:1013E000FFF79EFE55F8082F002AF7D12046164930
:1013F000FFF796FE35E7B8F1000F0DD0D8F80000E2
:1014000050B1C14602E059F8080F28B1514601F029
:1014100097FE0028F7D1C4E7524620461249FFF74D
:101420007FFE20461149FFF77BFE1AE7B00D002032
:101430000835000810350008343500083C35000830
:1014400090350008D00B0020BC3400085835000847
:1014500068330008403500086035000800080020A7
:101460006835000880350008843500088835000894
:1014700000F0A6BE00000000000000000000000018
:101480000EB400B582B003AB53F8041B1A460193A7
:10149000FFF7BEFC02B05DF804EB03B0704700BF7D
:1014A0001F4B19461A6842F001021A600B681C4A69
:1014B0009B07FBD511461368002003F0F903136066
:1014C00050604B68164A13F00C0FFAD1114613689E
:1014D00043F4803313600B68114A9803FBD511461F
:1014E000536843F4E8135360136843F08073136048
:1014F0000B680B4A9B01FBD5114610B4094B0A4CF3
:10150000122054601860536843F0020353604B6824
:1015100003F00C03082BFAD15DF8044B704700BFB1
:10152000001002400020024000641D000000000086
:1015300000EB8100C36830B458690C464268198AD0
:1015400003788A4228BF0A4603BB1749531C096D1A
:101550005B0801F1005101F5405101EBC4044FEA71
:1015600044042168C06801F1005101F540516568EB
:101570004FEA4101626007D002380A1F30F8021FAB
:10158000013B42F8041FF9D130BC7047064BC168DB
:10159000186D00F1005000F5405000EBC400400011
:1015A00030BCFFF785B800BF005C004000000000C1
:1015B00000EB8101C9688A69536833B1498A013BEC
:1015C0000B44B3FBF1F3138270470123138270477E
:1015D000022949D1F8B506460D46202383F3118828
:1015E000224C0121224AFFF7DBFB30462946214AE3
:1015F000FFF7D6FBA369D4F8542204F10C070025A9
:1016000016683846636223626FF00101656100F07D
:10161000C7FFE26B236CA2649B1A6264A36304F1AC
:1016200030006FF0010100F0BBFF201D012100F030
:101630005FFED4F8543201225979304606EB81031B
:10164000DB68B3F812E09B69C3F804E01A70DF604E
:101650009D60FFF7ADFFD4F8543230465979FFF75B
:1016600007F985F31188F8BD704700BF44090020D1
:101670004032000830330008000000000000000085
:1016800000EB8103DB68F0B41A6802F00302013A50
:10169000022A96BF2E4C4FF4007534F812509A6807
:1016A0000AB145F02005DA680AB145F4005547F65D
:1016B000700645EA010424F4784424F0F0048A001A
:1016C00044F4004402F1804202F5B84244F0800440
:1016D000146014682E4074405D8A44F4004444F061
:1016E00080043E2D146005F1FF3426D844F0010437
:1016F000013404EBD474640204F47C44154A1E8A59
:10170000126D002702F1005303F5405303EBC101B2
:1017100049004B684F60CB68CC60D0F880209319AB
:10172000C0F880300B680A60D0F880301D44C0F8E3
:1017300080508A68F0BC8B60704744F01F0401340D
:1017400064116FEAC4646FEA5444A4B2D6E700BFE0
:1017500010360008005C004000000000000000009F
:101760004168F0B5C9680D4B00290D4D4FF00004DC
:101770000CBF4FF41C474FF41E474FF0800E40261D
:101780001C6521465C64C3F84CE01F64C0F88060AF
:10179000C560BDE8F040FFF773BF00BF005C0040CC
:1017A000C03500080000000000000000000000003C
:1017B0002DE9F04F994B85B05C6C630500F19C817D
:1017C000270511D5DFF858B2944ADBF80410136CE2
:1017D0000D6843F00803136415B158460321A84768
:1017E0008E4B6FF400625A64E60408D58B4B9A6CFA
:1017F000150440F17181894B6FF480525A64A00541
:101800000BD5DFF81CB2DBF80430DB680BB15846AF
:101810009847824B6FF400725A64210440F1D380E0
:10182000DFF8FCB1DFF8F4A104F00F044FEA8408FC
:1018300008F1804505F5B845D5F80090A61C0BEBDE
:10184000860319F0800F5F6865D02B68E00023F4F1
:10185000784323F0F00343F400432B60DAF8503070
:10186000D7F814E003F1005303F5405303445B0041
:101870005968DEF80830DEF804200B44CEF8083052
:10188000D31A00F0BD803A8A9EF800C09A4228BF61
:101890001A46BCF1000F40F01281531C0193DEF890
:1018A0000C301944CEF80C10DAF850E0019B0EF120
:1018B000005E0EF5405E70444000D0F800E05B082A
:1018C0000EF1005E0EF5405ED0F804C04FEA4E0EF9
:1018D000426008D00239AEF1040231F8020F013B38
:1018E00042F8040FF9D1202383F3118808F18048CE
:1018F00008F5B848D8F80030002223F4F04323F06C
:10190000400383F0300343F4004343F08003C8F8FE
:10191000003082F3118819F4004F4FD02B6819F46E
:10192000006F23F4784323F0F00343F080032B602F
:101930005ED1DAF85030B96903F1005303F5405332
:1019400003EBC4035B00DA68104601920A78C0F327
:101950000908002A66D19A6808F1010302F10052D1
:1019600002F540525B084FEA4202C86809D08E4631
:1019700052F8041B013B20F8021BF9D17146DEF836
:101980000C004044C860088A7F8A8A684B68013826
:1019900080B24244C8EB0303B84508828A604B60BA
:1019A00016D3A8B12B6823F4904323F0700383F47B
:1019B000405343F4004343F080032B60DAF8444083
:1019C00023043FF531AF05B0BDE8F04F00F0F8BBA0
:1019D000BBF80A300BEB86060121A140726823EAAE
:1019E0000103D268ABF80A3021460D489047E5E77D
:1019F0000BEB8606736821465B6809489847DDE76C
:101A0000074B01221B89A24023EA0203044A214614
:101A100013811046BB6898477DE700BF005C00401B
:101A2000C00800209B685FEA580203F1005303F5E9
:101A300040534FEA4303C9680293039221D01046F2
:101A40009E464B695EF8042B03F10109C1F814901E
:101A50001A700B694FEA122C4A699A4228BFCA6869
:101A6000531C4B6182F800C00B694A699A4224BF3B
:101A7000CB684B610138E4D1029B039A03EB8203EC
:101A80000293019BDA070BD5029A4B691268581C26
:101A900048611A700B694A699A4224BFCB684B614E
:101AA000202383F311888B68084643448B60002110
:101AB00000F076FD002383F31188B96963E7DAF853
:101AC0005030DEF80C1003F1005303F54053184476
:101AD0004000FEF7EDFD06E7DFF874B01A6CDBF8A6
:101AE000041022F008020D681A64002D3FF483AE42
:101AF00058460421A8477EE6DFF854B000230222AE
:101B00001946ABF87C308BF87E308BF87F30ABF821
:101B10000830ABF80A308BF800200BF108030BF10A
:101B2000280243F8041F93424FF00005F9D10848FA
:101B30008BF86450FFF714FEDBF804301B6813B118
:101B4000294603489847034B6FF480625A6437E68E
:101B5000C0080020005C0040000000000000000001
:101B600090F87630426880F87E300649126843F07B
:101B7000800310B50446CB640AB1012190470323CA
:101B8000237010BD005C0040000000000000000059
:101B9000704700BF000000000000000000000000CF
:101BA00090F8743003F06003202B01D000207047C0
:101BB00090F87530212B03D0222B09D0202BF5D1A2
:101BC0000649072200238166C26603670120704729
:101BD00000238366C366036701207047180800204E
:101BE000EFF30983203383F30988002383F31188FB
:101BF000704700BF0000000000000000000000006F
:101C000010B4202383F31188094C0A4B2268196809
:101C1000C31D23F00703891A8B429DBF9B182360C5
:101C200010460020002383F311885DF8044B7047B1
:101C3000240D0020200D0020000000000000000006
:101C400010B4202383F31188037F072B0ED8DFE81D
:101C500003F0270D0D2308040D08026A9368013371
:101C6000936090E80C001A60026853604FF0FF34F4
:101C7000002281680D4B046202771B689A688A42D1
:101C8000FBD25A680021036042601060586081F303
:101C900011885DF8044B7047036A00221A60E5E77B
:101CA000002383F311885DF8044B7047B00D0020CA
:101CB000FEE700BF00000000000000000000000080
:101CC000F8B5046AD4F8542213681978042900D0AE
:101CD000F8BD217A0229FBD1517901265A8903EBFB
:101CE0008103DB6806FA01F111EA0205588AEFD197
:101CF000A369E2696169D21A531A9842E8D885F358
:101D00001188B3FBF0F3D4F8542200FB03F35179AC
:101D1000106804F10C0700EB8102D26892695360ED
:101D200016709560D760FFF743FC202383F311887A
:101D3000D4F8543218685979BDE8F840FEF798BDD8
:101D4000F8B5046AD4F8542213681978042900D02D
:101D5000F8BD217A0229FBD112791B89012606FAE6
:101D600002F212EA0305F3D1226CE36BA16BD31AE2
:101D70005B1AEDD085F31188D4F8541204F13007C2
:101D80000A680979104602EB8102D26852695360F1
:101D900016709560D760FFF7CBFB202383F3118883
:101DA000D4F8543218681979BDE8F840FEF7E0BC61
:101DB0000D4AF0B410689469056801270026A168EF
:101DC0002B466A60156007779061267700E01B68F4
:101DD0009A688A42FBD85A68214623606260146080
:101DE0005C60F0BCFEF70CBAB00D002000000000F3
:101DF000074B30B41A689969146801250877636045
:101E000015771C60104630BC9A61FEF7F9B900BF27
:101E1000B00D0020000000000000000000000000E5
:101E20004FF6FF732DE9F041994286B051D0494CED
:101E30004FF08047254655F81C2F7B6A012906463E
:101E4000DFF814E1A06998BF0221AA4205909BB275
:101E5000CDF810E064D01944E38C89B21089CB1A14
:101E60009BB2834238BF7963834205D912681B1A3B
:101E700010899BB29842F9D34FF6FF7051680DF16B
:101E8000040802910192C1F80080C2F80480ADF804
:101E90000C301189CB1A1381A0843046FFF7A8FFBC
:101EA000049B8BB1E3692B4A43451AD0029A019BEC
:101EB00000211360019BAB425A60049104D0BDF82D
:101EC0000C101A890A441A81A369186A06B0BDE881
:101ED000F081FFF78DFF1F4CA369186A06B0BDE8BB
:101EE000F081019E0023AE42D661756004932CD030
:101EF0004FF08040416AD58CBDF80C7033898AB2AE
:101F0000511B3B449BB289B28B423381DCD95B1AB3
:101F10009BB2012B98BF022313449BB24363D3E7C8
:101F2000CA180DF1040892B24FF0000E0220E384AB
:101F300001950295ADF80C10C4F81C80C4F82080FF
:101F40007A63C7F810E0F860A7E74FF08042D360EB
:101F5000BAE700BFB00D0020411C000800000000DF
:101F600069B10246074B10B49B694468042083E8BA
:101F70001400236053605DF8044BFFF751BF4FF02E
:101F8000FF307047B00D002000000000000000008E
:101F90002DE9F04F83B004468B4615460193C7697F
:101FA0004FF0200888F311880026B146A3680BF192
:101FB000010AFBB16269A368501C013B6061A36028
:101FC0009BF800301370236962699A4224BFE3686A
:101FD00063610FB12046B84789F31188013D06F1CE
:101FE000010611D088F31188D346A3680BF1010ACA
:101FF000002BDFD1204601990093FFF7B1FF009B32
:102000000028D3D083F31188304603B0BDE8F08FA9
:102010003030FFF7BDBF00BF00000000000000002F
:1020200030304FF6FF73FFF7B3BF00BF0000000072
:10203000F8B504460F461646202383F3118805E0C1
:1020400020463146FFF78CFF002817DBA568002DDE
:10205000F6D06269A368511C013B6161A3601770EF
:10206000236962699A4224BFE3686361E3690BB143
:1020700020469847002080F31188F8BD85F3118829
:10208000F8BD00BF000000000000000000000000DC
:102090003030FFF7CDBF00BF00000000000000009F
:1020A00030304FF6FF72FFF7C3BF00BF00000000E3
:1020B0002DE9F04F044683B0894693461D46D0F87B
:1020C0001C80202787F311880026B2460197B8F1BB
:1020D000000F07D02046C04704E020462946FFF7FE
:1020E0003FFFD0B9A768002FF7D0A269A368511CA1
:1020F000013BA161A360137809F8013B2369A26940
:102100009A4224BFE368A3618AF311880136B3457C
:1021100005D0019B83F31188D9E787F311883046F6
:1021200003B0BDE8F08F00BF000000000000000019
:102130000C30FFF7BDBF00BF000000000000000032
:102140000C304FF6FF73FFF7B3BF00BF0000000075
:1021500070B520230E46044683F31188C3693BB152
:10216000984705E020463146FFF7FAFE002813DBCA
:10217000A568002DF6D0A169A36825694A1C013B1A
:10218000AA42A36028BFE368A261087828BFA361C0
:10219000002383F3118870BD85F3118870BD00BFE3
:1021A0000C30FFF7D5BF00BF0000000000000000AA
:1021B0000C304FF6FF71FFF7CBBF00BF00000000EF
:1021C000202383F311880F4B5B6813F4006302D163
:1021D00083F311887047EFF309834FF0807243F85F
:1021E000042CA3F1200282F30988074A116892693E
:1021F0008968926891428CBF044A054A43F8082CCA
:10220000704700BF00ED00E0B00D00202102000883
:102210002402000800000000000000000000000090
:102220000E4B0F495A688368096FD31A5B1AC2684C
:10223000416830B4D0E90445E41845F100050132A5
:102240008B42C2608360C0E9044505D802689342AE
:1022500038BF036030BC70474360FBE7001000E00C
:10226000B00D002000000000000000000000000091
:1022700008B50146202383F311880820FFF7D0FD1D
:10228000002383F3118808BD000000000000000057
:10229000FFF78EBD000000000000000000000000FD
:1022A000044B1A689B6992689B689A4200D87047F1
:1022B000FFF77EBDB00D0020000000000000000010
:1022C00010B4044600228168074B02771B689A68A5
:1022D0008A42FBD25A6820462360626014605C60C8
:1022E0005DF8044B704700BFB00D002000000000F7
:1022F000F8B50468A04221D00E460746002502E04A
:102300002468A7421AD0E3683343E36016B1226918
:102310001342F5D06068A368416B027F0B430A2A21
:1023200043630CD00B2AEBD1026A13409A42E7D1E7
:102330000562FFF7C5FF2468A742E4D1F8BD026A31
:102340001342DDD00562FFF7BBFFF4E70000000099
:1023500001F111032DE9F04150F82340BCB10746CB
:102360000D464FF0200888F3118804216018FFF70C
:10237000BFFF07EB8500C168E269A6696369498A06
:10238000921BD31A994204D9002383F31188BDE824
:10239000F0814FF0000E8EF31188B3FBF1F3C268A9
:1023A00001FB03F392690C34012111705360C2F8F0
:1023B00008E0D46038462946FFF7FAF888F3118818
:1023C00038462946FEF754FADEE700BF0000000059
:1023D000F8B500EB81039C6ABCB10E460546202788
:1023E00087F311880821201DFFF782FF226CE36B21
:1023F000A16BD31A5B1A18D105EB8601CB685A6919
:1024000052681AB9002383F31188F8BD1B8A013B77
:102410001340F7D183F31188CA683034526901211F
:1024200053609360D46011700CE0002181F3118837
:1024300005EB8602D268303452690120D4605360C3
:102440009160107028463146FFF772F887F31188C3
:1024500028463146FEF78CF9D4E700BF00000000A3
:10246000174B70B59D69202383F311880468C368F6
:10247000A042AB631DD0E96B4BB11A68934203D005
:102480009268914238BF1146DB68002BF5D10346B4
:102490002268A66B2046A9601A6053609C60DE60CB
:1024A000A363FFF70DFFFFF7FBFE002383F3118803
:1024B00070BD00238360002383F3118870BD00BFCB
:1024C000B00D00200000000000000000000000002F
:1024D000F8B582682F4B9C69002A55D0A168936893
:1024E0000546994206D9137F9160062B33D0072BFE
:1024F0001DD09BB12B4603E09968A268914202D39C
:102500001B689D42F8D15A682360626014605C6069
:1025100025620620BDE8F840FFF76ABC92E80A0091
:102520001960104612685360FFF7CAFEE2E71768A9
:102530005068166A076017683346786002E098684A
:10254000884202D31B689E42F9D1596813605160DA
:102550000A605A60CEE717685068166A0760176805
:102560003346786002E09868884202D31B689E4236
:10257000F9D15968136051600A605A60B268A16865
:1025800093688B42AFD3B5E7A36B8460C360A0634D
:10259000F8BD00BFB00D00200000000000000000EA
:1025A00038B50368044698420D4609D01A681846A3
:1025B000226054601D62FFF783FE23689C42F5D1C0
:1025C00038BD00BF00000000000000000000000057
:1025D00038B50E4B9C69636A04F124059D42206264
:1025E00007D01A6818466262FFF76AFE636AAB4258
:1025F000F7D1637F9B0704D1226963691A6122695D
:1026000053610F20BDE83840FFF7F2BBB00D00204A
:10261000202383F31188FFF7DBBF00BF0000000019
:10262000FEE700BF00000000000000000000000006
:10263000FEE700BF000000000000000000000000F6
:10264000704700BF00000000000000000000000014
:10265000704700BF00000000000000000000000004
:102660004FF40056B0460C4B0C4A9B6980B50C4D9C
:102670000C4F9A613B78C5F81480042B0CBF4FF4C3
:10268000FA744FF4FA642046FFF7F2FD20462E61FB
:10269000FFF7EEFDEEE700BFB00D0020A03600080A
:1026A00000100140C00800200000000000000000F1
:1026B000002914DCF8B504460A4F2026002586F3CD
:1026C0001188BB685A6A85F31188074992B220467F
:1026D000FEF7D6FE4FF47A70FFF7CAFDEFE7034925
:1026E000FEF7CEBE440D0020A8360008B83600081C
:1026F000002902DD0149FEF7C3BE7047C836000855
:1027000000210A4608460E46B74B4FF0FF341D69BC
:102710002DE980481C611961DD68DC60D960DC69E5
:10272000B24D44F08054DC61DC69B14F44F0006488
:10273000DC612B68DFF8DCE243F48073AD4C2B6086
:1027400089B039605EF802300C321E6044F83060A7
:10275000013007284FF00003F4D1A74942F28A5C08
:102760008B46A64C4FF0FF329F4862608469A44FAD
:10277000DFF8D892DFF8D8A2A24EDFF8D8E244F012
:102780007D048461A04DFA60A04CC7F804A0DFF876
:10279000C882C7F80090DFF8C492F260C6F804E07F
:1027A000C6F800E04FF08836EA606E602E60E260A6
:1027B0006660C4F80080C9F80C20C9F80460C9F844
:1027C00000608269924F934E4FF0010E07F118049A
:1027D00042F40072092587F800E07B60BB60FB6073
:1027E0003B617B613B62FE628261C7F830C0BC61C5
:1027F000FC61B9624B60C1F808E08D60DBF808202D
:102800007D4B1207FAD4194605229A608B687A4AE2
:1028100013F00403FAD1DFF8D0E19360DEF818502A
:102820007D4A7E4C7E49DFF83892DFF838A2DFF827
:10283000388202F10C070120A4F10C0625F4007582
:102840004FF0080BCEF818509C4653605361D3618B
:10285000C2F834A0D7601761D46216634B708B70D6
:102860004B601070C9F804300E614C610870C1F8FB
:102870000880C1F80CB089F8000009F1280309F1BB
:10288000440243F804CF9342C3F81CC04FF0000445
:10289000F7D14FF6FF7748F69F484FF6FF00524DAD
:1028A000DFF8C8C1E9695F4E41F00101E961DCF878
:1028B00004105D4D41F4006ECCF804E04FF080410F
:1028C0004FF0010A4FF0805E4FF0800BC1F8288076
:1028D000CF628C614C63CC604C60C1F814A0C1F82D
:1028E00000A086F81CB3C6F880E1C6F800E0AC6032
:1028F000EE684E49304001434D4EE960F1684D4865
:1029000041F08071F16001684B4E4FF0100C41EACC
:102910000A014FF0200BA9F80840A9F80A4001600D
:1029200085F81FC0766085F822B0444D06F11C0E74
:10293000C6F81CE0C6F820E0B46036603661766107
:10294000B7842F46002200234FF0FF3102A8CDE9C3
:1029500006230291F484346703940494059400F0F0
:102960004FFB02A8FFF75CFC049AAC61706910355C
:102970003349344B32673D6106F12C027D61DFF84B
:10298000F0804025DFF8ECC0DFF8ECE030647563E0
:10299000B56621F0070123F0070386F84940746605
:1029A000346686F84AA07464F66306F15005026145
:1029B00006F154007261B261BC60FC6086F848A008
:1029C0003565C7F800807065B065CCF80010CEF8AA
:1029D0000030022284F3118862B61B49B369996101
:1029E0008BF311884AE000BF0010024000700040E5
:1029F000A80D0020880800200024014000000240AB
:102A000000080140000C014000100140001401408A
:102A10009C0B002010370008700D0020583700086C
:102A2000280D002000E100E000ED00E00003FA05C1
:102A3000F0ED00E0001000E0B00D0020500D00208F
:102A4000070F00200050002050360008884B88886F
:102A5000B884888838888888448888880018014025
:102A6000C00800200054004000440040002004E062
:102A7000011C0008240D0020200D0020BE487369B1
:102A8000DFF8408306F1780106F59675C6F88450A4
:102A9000C6F82C01C6F88C30C6F83041C6F880A0C4
:102AA00086F8942086F89540C6F8B4A0C6F8B040E1
:102AB000C6F8AC4086F896A0C6F89040C6F8886084
:102AC000C6F84C8106F19C05196106F1A003084681
:102AD000C6F89C50C6F8A030C6F8A43001927161C7
:102AE00000F05EFA84F31188A44DDFF8DCE22B4697
:102AF000A348DFF8D8C243F804EBA2494FF4807E24
:102B0000C6F8900005F5157085F808A06C6105F110
:102B10000C0AC5F828C0C5F838E005F1540C05F5D5
:102B2000AA7E286405F13000ED622D65E9646B60D2
:102B3000C5F80CA0C5F810A0C5F818C0C5F824C089
:102B4000C5F820C0C5F81CE0C5F83CE0C5F848E071
:102B5000C5F844E0286368638BF311888A4B019AB7
:102B6000C9F82C50C9F84850C9F830502A72C5F835
:102B7000543284F31188854B4FF400721A6140F689
:102B8000B830FFF775FB8BF311888149814B0A46FA
:102B900001EB0B0AC9F8043042F8044F52454FF0DC
:102BA0000003F9D199F800E07B4ABEF1010F00F073
:102BB000AD81022089F80000002484F31188734A53
:102BC000764B4FF4007151614FF020091B6089F37F
:102BD0001188734B7269DFF8F8C140214FF0010E84
:102BE0001877C3F824C183F81EE05A61C3F828415E
:102BF000C3F844815C779C635C639C611E6103F550
:102C0000927CD96303F1240E136103F12802184664
:102C1000C3F80CC09960C3F824E09A62DA62736169
:102C200000F0BEF984F311885E4A536843F44063B0
:102C3000536089F311885C4A5C4813785060012B1B
:102C400000F059814FF6FF749368002119605960B4
:102C50009962D960DC629969047841F4807141F02D
:102C60000101996151491CB94978012900F0888115
:102C7000012199608178002401290CBF13211121C1
:102C800019620223137084F31188202383F31188BF
:102C90009168012003230860137084F311884CB1FC
:102CA000237F0F2B00F096804FF4FA60FFF7E0FAD5
:102CB000002CF5D1D5F854321B681B78042BEFD1CA
:102CC000202383F311883A48FFF702FC84F311882C
:102CD000384A40F6C70004E05968814200F2DF80BC
:102CE0001A461368002BF7D13148FFF7B9FB324B76
:102CF0001B68002BD8D04FF40D6098470028D3D024
:102D000040F6C8032C4A00F1080480E80C00002CAF
:102D1000CAD0202383F31188284F7069C4F8A4789F
:102D200004F6A4010223264FE1604FF0400E4FF05D
:102D300000090121237704F1240204F128036061D2
:102D40002661C4F808E0C4F8A878C4F8C488C4F8B8
:102D50003CE0C4F83890C4F83490C4F81890A177D7
:102D60000461204662626177A362E362746100F0ED
:102D700017F989F3118897E7B11C0008440900206E
:102D8000D8360008411D0008F0360008000C01404C
:102D9000C808002090360008C0080020D00B002092
:102DA000D80B002000000140440D00202008002026
:102DB000600D0020580D0020500D00204112000829
:102DC000003700081102000870370008C11C000815
:102DD00061260008202181F31188A37F0022013B96
:102DE000DBB2A37782F31188D3B9227F0F2A01D0F7
:102DF0001C4659E7627F02F00302012A12D0022A20
:102E0000F6D127696069226C07612769786181F3CF
:102E1000118811682160146083F311881C4643E710
:102E2000144641E722696069019302612269A4F1B5
:102E30000809506154F8082C02F1080A02F1100B3D
:102E400081F311885846FFF743FB019B83F31188F8
:102E500053469A4504D0994502D81B689A45FAD141
:102E60001A681AB1914501D31346F2E754F8041CCD
:102E700044F8082CC3F8009001F1080054F8082C1D
:102E800009EB000E96452DD0596801F108021A444D
:102E9000914520D05846FFF7E3FA002404E7B1F546
:102EA0000D6F0AD2196811601C463748A0F1100353
:102EB00044F8083BFFF7D4FA29E740F6C8041F6836
:102EC000A1F50D6103F50D60C3F8D078C3F8D418EF
:102ED00010605C60E8E714E905000A44083283E802
:102EE0000500D7E7DEF8042059F800001144083146
:102EF00004E90300C8E7254BD96941F00401D96111
:102F0000196941F0040119611C619BE69B46DFF8D9
:102F10007CC0A2F87C30DCF81C001D4C40F40000A2
:102F200082F87E3082F87F3013815381CCF81C0008
:102F300018484FF0D00CC4F840E080F813C34FF4A9
:102F4000002E4FF0E00CC0F880E1C0F800E080F8FF
:102F500014C34FF4801E4FF0020CC0F880E1C0F89B
:102F600000E0236482F800C041F804BF51454FF0EF
:102F70000003F9D1084889F86430FEF7F1FB18E640
:102F80000321996076E600BF600D0020001002402A
:102F9000005C004000E100E0C008002000000000EC
:102FA00070B40446134B81689D690026A8682662A8
:102FB00081420BD826771B689A689142FBD95A68E0
:102FC0002360626014605C6070BC70471A462E77A4
:102FD000126891688842FBD95068012668602A60AF
:102FE000056055602677294620469C6170BCFDF738
:102FF00007B900BFB00D0020000000000000000075
:10300000014B5B6883607047001000E00000000027
:1030100038B50D46044690B1286020460B4900F0B3
:10302000D7F804442046094900F0AAF860B1421CD0
:1030300000232A600370237823B1204638BD0C6832
:10304000002CEAD1002038BD2860F4E79037000852
:10305000F0B400F10B073C460D46B1FBF2F6B5FBB0
:10306000F2F502FB161101F13003392BC8BF01F153
:103070003703DBB204F8013D3146002DEDD13A1B98
:10308000024401E014F8013F00F8013B9042F9D1FD
:10309000F0BC7047000000000000000000000000CD
:1030A00070B4840746D0541E002A41D0CDB20346E6
:1030B00002E0621EE4B3144603F8015B9A07F8D1FC
:1030C000032C2ED9CDB245EA05250F2C45EA05453E
:1030D00019D9264603F11002103E0F2E42F8105C5B
:1030E00042F80C5C42F8085C42F8045C02F1100201
:1030F000F2D8A4F1100222F00F0204F00F041032F3
:10310000032C13440DD91E462246043A032A46F8DE
:10311000045BFAD8221F22F003020432134404F0A5
:1031200003042CB1C9B21C4403F8011BA342FBD118
:1031300070BC704714460346C2E700BF00000000A1
:103140000E4B30B41D6802E09B1A14D19AB110F8EE
:10315000013BEA18527802F00302012A11F8012B10
:1031600008BF2033AC18647804F00304012CEBD1C1
:1031700020329B1AEBD0184630BC70473008002034
:1031800030B40478ECB10D78ADB1AC420ED00A4643
:1031900001E09C4209D012F8013F002BF9D110F850
:1031A000014F002CF0D1157800E02546002D08BF16
:1031B000002030BC704710F8014F0A46002CE3D1C4
:1031C000F1E7204630BC704700000000000000001E
:1031D00070B40478A4B105460E784EB1B4420AD05A
:1031E0000A4601E09C4206D012F8013F002BF9D1BB
:1031F000281A70BC704715F8014F002CEDD1F7E785
:103200002046F6E70000000000000000000000007B
:1032100000000000000000000000000000000000AE
:10322000000000000000000000000000000000009E
:10323000010000000000000000000000000000008D
:103240000200000000000000D12300085123000804
:1032500040004000480800205808002002000000FC
:10326000000000000000000000000000000000005E
:1032700009024300020100C03209040000010202F9
:1032800001000524001001052401000104240202AC
:103290000524060001070582030800FF0904010058
:1032A000020A000000070501024000000705810234
:1032B00040000000000000000000000000000000CE
:1032C00012034C006500610066004C006100620062
:1032D000730000000000000000000000000000007B
:1032E0003803430068006900620069004F00530022
:1032F0002F00520054002000560069007200740034
:10330000750061006C00200043004F004D0020005C
:1033100050006F0072007400000000000000000008
:1033200043000000703200080000000000000000B0
:103330000300000000000000911B000800000000D6
:10334000100000003808002000000000010000000C
:10335000000000000000000000000000000000006D
:10336000286E756C6C29000055736167653A2025DD
:10337000730D0A0073797374696D6500256C750DA2
:103380000A000000696E666F000000004B65726EF7
:10339000656C3A2020202020202025730D0A000093
:1033A000332E302E31000000436F6D70696C6572F2
:1033B0003A202020202025730D0A00004743432097
:1033C000342E392E33203230313530353239202801
:1033D00072656C6561736529205B41524D2F656D87
:1033E0006265646465642D345F392D6272616E6359
:1033F00068207265766973696F6E203232373937AB
:10340000375D000041726368697465637475726545
:103410003A2025730D0A000041524D76372D4D009C
:10342000436F72652056617269616E743A2025732C
:103430000D0A0000436F727465782D4D3300000053
:10344000506F727420496E666F3A202020202573D9
:103450000D0A0000416476616E636564206B6572DD
:103460006E656C206D6F646500000000506C6174C7
:10347000666F726D3A202020202025730D0A00000F
:1034800053544D33324631307820506572666F7236
:103490006D616E6365204C696E65204D656469756C
:1034A0006D2044656E73697479000000426F61722B
:1034B000643A202020202020202025730D0A0000BF
:1034C0004C6561664C616273204D61706C65204D86
:1034D000696E69004275696C642074696D653A2093
:1034E00020202573257325730D0A00004E6F76206A
:1034F0003132203230313700202D200030313A3146
:10350000313A3037000000007368656C6C000000D1
:103510000D0A5354656368287361616761722E7484
:1035200065636840676D61696C2E636F6D290D0A74
:103530000000000067756573743E20005E44000063
:10354000746F6F206D616E7920617267756D656E45
:1035500074730D0A000000006578697400000000B3
:1035600068656C7000000000436F6D6D616E647380
:103570003A2068656C70206578697420000000004E
:103580002573200025730000203F0D0A0000000075
:103590000D0A6C6F676F757400000000000000007A
:1035A0001201100102000040AF1E040000020102DF
:1035B0000301000000000000000000000000000007
:1035C00000000000B1090008C1080008C107000898
:1035D000400040006C0800206C0800200100000042
:1035E0008008002000000000000000000000000033
:1035F00004030904000000000000000000000000B7
:10360000080333003000310000000000000000001B
:1036100000040000000600000000000000000000A0
:1036200004000000F035000812000000C03200085D
:1036300038000000E03200080800000000360008F2
:1036400012000000A035000800000000000000008B
:103650006D61696E00160118040244080C101418FC
:10366000001C1D1E00000000000000000000000003
:10367000E0360008F1260008E4360008B12600080C
:10368000000000000000000000000000000000003A
:10369000D1150008E10D0008A11B00080000000082
:1036A000626C696E6B65720056616C7565203A20BC
:1036B0002564200D0A00000055736167653A207487
:1036C0006573740D0A00000055736167653A206DDB
:1036D000656D0D0A0000000069646C650000000063
:1036E0006D656D006164635F7761746368000000FD
:1036F000C0080020010102000000000000000000DE
:10370000440900207036000800000000000000009E
:10371000080002400400024000000B001C000240B0
:103720000400024004010C0030000240040002408A
:1037300008020D0044000240040002400C030E0089
:10374000580002400400024010040F006C000240C8
:1037500004000240140510008000024004000240F2
:10376000180611000000000000000000000000002A
:103770002120000841210008A1200008B1210008F3
:1037800091200008A1210008112000083121000823
:103790002009000000000000000000000000000000
:1037A0000020202020202020202028282828282011
:1037B0002020202020202020202020202020202009
:1037C0002088101010101010101010101010101071
:1037D0001004040404040404040404101010101061
:1037E000101041414141414101010101010101012B
:1037F000010101010101010101010101101010107D
:1038000010104242424242420202020202020202FC
:103810000202020202020202020202021010101050
:103820002000000000000000000000000000000078
:103830000000000000000000000000000000000088
:103840000000000000000000000000000000000078
:103850000000000000000000000000000000000068
:103860000000000000000000000000000000000058
:103870000000000000000000000000000000000048
:103880000000000000000000000000000000000038
:103890000000000000000000000000000000000028
:0138A0000027
:1038A80084330008811100087433000841110008AE
:1038B8000000000000000000009600000000080062
:1038C80000010000000000000000000000000000EF
:0438D800A03700080D
:0400000508000141AD
:00000001FF
